S013000052413850315F54455354312E73726563F5
S3150200000040630022B1410002853F0002AD41000279
S31502000010AD410002AD410002AD410002AD41000218
S31502000020000000000000000000000000AD410002D8
S31502000030AD41000200000000AD410002AD410002E8
S315020000401D1C0002751B0002AD1C0002F91C0002F9
S31502000050613A0002F126000285280002A92900025F
S315020000608D2A00021D1C0002751B0002AD1C000237
S31502000070F91C0002F126000285280002A9290002C5
S315020000808D2A00021D1C0002751B0002AD1C000217
S31502000090F91C00021D1C0002751B0002AD1C0002A9
S315020000A0F91C00021D1C0002751B0002AD1C000299
S315020000B0F91C0002A53500022D1500027515000275
S315020000C00100000008070000104000001040000078
S315020000D010400000108100001040000000000000E7
S315020000E0000008A000000000000000000000000060
S315020000F0FFFFFFFF0B07EA07FFFFFFFFFFFFFFFF01
S31502000100FFFFFFFF0101EA0701000000FFFFFFFFFB
S3150200011004000000045AAD51D12A810000000741B3
S31502000120646D696E20436172640000000000000085
S3150200013000000002044E3551D12A81000000077AE0
S3150200014068616E672073616E200000000000000087
S3150200015000000001D7DFFC06000000000000046C6E
S3150200016069207368690000000000000000000000BA
S315020001700000000504F8EF52D12A8100000007773B
S31502000180616E672077750000000000000000000025
S3150200019000000006B81E053F010000009A99993E2C
S315020001A00AD7A33D0AD7A33E0000000003000000C1
S315020001B0686E01227801002200000000686E0122AA
S315020001C0D06E0122386F01220000000000000000FC
S315020001D00000000000000000000000000000000017
S315020001E00000000000000000000000000000000007
S315020001F000000000000000000000000000000000F7
S3150200020000000000430000000000000000000000A3
S3150200021000000000000000000000000000000000D6
S315020002200000000043000000000000000000000083
S3150200023000000000000000000000000000000000B6
S315020002400000000043000000000000000000000063
S315020002500000000000000000000000000000000096
S315020002600000000043000000000000000000000043
S315020002700000000000000000000000000000000076
S315020002800000000043000000000000000000000023
S315020002900000000000000000000000000000000056
S315020002A00000000043000000000000000000000003
S315020002B00000000000000000000000000000000036
S315020002C000000000430000000000000000000000E3
S315020002D00000000000000000000000000000000016
S315020002E0000000002DF60002D5F300020000000017
S315020002F0043D0A02FA3B0A02CB3B0A02CB3B0A0244
S31502000300CB3B0A02CB3B0A02CB3B0A02CB3B0A029D
S31502000310CB3B0A02CB3B0A02CB3B0A02FFFFFFFFA3
S31502000320FFFFFFFFFFFFFFFFFFFF0000010041533A
S3150200033043494900000000000000000000000000E0
S315020003400000000000000000000000000000415311
S3150200035043494900000000000000000000000000C0
S315020003600000000000000000000000000000000085
S315020003700348044B834202D0034B03B1184770472C
S31502000380300300223003002200000000064B07491A
S31502000390C91A891048BF0131491003D0044B0BB169
S315020003A001481847704700BF30030022300300227D
S315020003B00000000010B5064C237843B9FFF7D8FFBA
S315020003C0044B13B10448AFF300800123237010BD20
S315020003D0606500220000000028F1C90208B5054B3D
S315020003E01BB105490548AFF30080BDE80840FFF799
S315020003F0CDBF00BF000000006465002228F1C902DB
S3150200040008B5037903B108BD054A136801331360C1
S3150200041005F024FC04F0B0F8BDE8084006F008BB7D
S31502000420C4680022D8B10379022B19D0042B16D145
S3150200043010B40D490D4A0B68146801335A4202F092
S315020004401F0203F01F0353EA42B39C4204D00A6818
S31502000450047A074884540B605DF8044B7047704772
S315020004600122044B1A707047986800229468002291
S31502000470A06800228000002270B5151E10DD91B121
S315020004800A4B4FF0000C9868094C06461868B36888
S3150200049084F800C098472378002BFCD0284670BD0C
S315020004A00025284670BD0D46284670BDE41201029D
S315020004B080000022000000002DE9F04F2DED028B96
S315020004C0B74BADF64C0DD3E9011218681268904786
S315020004D0B44B1D689C685968226828469047636831
S315020004E02846984706F000FC824620B10146AE48EF
S315020004F00CF032FBFEE708F0EDFE07F06FF8022083
S3150200050006F0B4FE504606F077FF1321462008F0A7
S31502000510E7F80BF06FF909F025FF0AF0E1F8A348B6
S315020005200CF082FB0AF078FFA1480CF07DFB05F087
S3150200053053FAA0480CF078FB09F0DCF89E480CF060
S3150200054073FB06F051FB9D480CF06EFB52469C492C
S315020005509C480AF0D5F99C4805F0A4FE9B480CF08D
S3150200056063FB9B480CF060FB9A480CF05DFB40F283
S3150200057083324FF461714FF4C873CDE90B214FF406
S315020005804872DFED958A554656465446CDE906AA87
S3150200059008930D920993CDF810A0CDF814A0CDF8CA
S315020005A00CA08E488E4B02681B689A4200F09C8013
S315020005B003688C4AD25C0368633A0133594201F0FC
S315020005C01F0103F01F0353EA41B303600F2AE8D861
S315020005D001A353F822F000BFCD060002A3050002D4
S315020005E0A10600026506000253060002A3050002E8
S315020005F0A3050002A305000237060002A3050002B6
S31502000600A3050002A3050002A3050002A30500023A
S31502000610A30500021906000208F0DCFE0BF090FCAE
S3150200062071480CF001FB00231D461E461C4607932B
S3150200063005930393B5E7039B012B00F06381039BAC
S31502000640022BAED1002C00F08283022301240393F5
S31502000650A7E709F0CDFE654805F024FE64480CF0D4
S31502000660E3FA9EE7039B022B9BD109F03BFD011E99
S31502000670C0F2E6825F480CF06FFA0EA84FF4806172
S3150200068009F078FD5C490EAA0DF587600CF0D4FAE4
S315020006900DF5876005F006FE58480CF0C5FA80E7AE
S315020006A008F098FE56480CF0BFFA56480CF0BCFA11
S315020006B009F0CAFC032800F32E8153480CF0B4FA61
S315020006C0002502232E462C4603936AE708F082FE93
S315020006D04E480CF0A9FA4E480CF0A6FA0025012362
S315020006E02E462C4603935CE705F05EFC05F0E4F922
S315020006F005F07AFE09F0CEFE09F012FF0AF0E8F9DB
S3150200070009F05CFF0AF0FCFD08F09AF806F040FAE0
S3150200071030BB06F077FB074600283FF442AF039B47
S31502000720012B00F0D880039B022B7FD1002C00F016
S315020007306181384B01461C68374B9C4200F3EF80BF
S31502000740364B4FF4806203EB44000CF056FC344BFC
S3150200075004F500749C4200F0EB802E4B1C6074E79B
S3150200076018210EA806F0EAF92E490EAA0DF58760A1
S315020007700CF062FA0DF587600AF000F809F06AFCDF
S31502000780002840F0BB80284A13680133782B136097
S31502000790BFDCDB07BDD40C4805F084FDB9E700BF1A
S315020007A0E41201026014010260FF000278FF0002F7
S315020007B090FF0002ACFF0002CCFF0002E4FF000241
S315020007C0FCFF000200000102040001020C0001020B
S315020007D03800010270000102006C02469468002291
S315020007E098680022A0680022E0000102B801010216
S315020007F0C001010270010102880101029001010299
S315020008001C01010234010102580401029C0001028A
S31502000810B80001020C6800220E44010000000068C4
S315020008200E460100E8010102906800224FF4007EA4
S31502000830821E4EF001E00020002132F9023FC3FB86
S3150200084083010FF007C0002903468C4605DA40F201
S31502000850FF128218134641F1000C1846614650EA0F
S315020008606F210BF03FFC00EE100AB5EE400AF1EEE6
S3150200087010FA00F17D82B1EEC08A079B002B00F3CD
S315020008800181C749C74B0A681B689A42FFF489AEC1
S31502000890C54BD3F80080069B002B40F0C98100238C
S315020008A00693FDEEC87A17EE903A002D40F09E812F
S315020008B00C9A4245B8BF42469A4200F3158208F0A6
S315020008C089FD38464FF4007108F06AFD00230125C0
S315020008D00493059365E6002C3FF463AE43F6367344
S315020008E09E42014600F3D180B04B4FF4806203EB87
S315020008F0460006F500760CF080FB52E60023AC4A71
S31502000900136006E7002C7FF44CAEAA480CF08CF973
S315020009102646039C45E6A8480CF086F9CDE6A74B89
S31502000920C4F5A3320E32520003EB44000CF065FB11
S315020009300023DFF8B0B240F2FF185F469946A04A9C
S31502000940A04C13604FF4007E00204EF001E000211F
S31502000950A4F5806232F9023FC3FB83010FF007C0A0
S31502000960002903460A4603DA10EB080341F10002A6
S315020009701846114650EA6F210BF0B4FB00EE100A3E
S31502000980B5EE400AF1EE10FA00F1ED81F1EEC07A11
S31502000990FDEEE77A17EE903A9945B8BF994647F8C1
S315020009A0043F894B04F580649F42CBD141F26F73B9
S315020009B04FF0FF379945CABF844B4FF4FA6483FB65
S315020009C009344FF000024FF0A3033846C8BFA4EB28
S315020009D0E9745BF8041FA14203DB00281746B8BF7F
S315020009E01046013B02F10102F3D1002804DA7848ED
S315020009F00CF01AF90024D4E50238033720EAE07035
S31502000A00A22FD4BFC0EB0703C0F1A2035F1C7B0277
S31502000A10002B0A9340F394810027B946B846674BE8
S31502000A2003EB80240A9B2046D91B45F208239942F0
S31502000A30A8BF194608F0ECFC08F0BCFC0E28834659
S31502000A4000F39D8008F0C6FC07F5A4470A9B083709
S31502000A5004F52444BB4204F11004E3DCB8F1000FB0
S31502000A6040F36E8107EE903A9FED4B5BB8EEE77B63
S31502000A7087EE056B4A4641468DED006B55480CF0F4
S31502000A806BF8B7E7013B07938BE5484BC6F5824205
S31502000A90DFF85491363203EB460052000CF0ADFA01
S31502000AA00024C84640F2FF174B4E4FF4007E00204A
S31502000AB04EF001E00021A6F5806232F9023FC3FB47
S31502000AC083010FF007C0002903460A4602DAC3195A
S31502000AD041F100021846114650EA6F210BF002FB63
S31502000AE000EE100AB5EE400AF1EE10FA00F163814B
S31502000AF0F1EEC07AFDEEE77A17EE903A9C42B8BF65
S31502000B001C4648F8043F354B06F580664345CCD172
S31502000B1041F293134FF0FF329C42CABF2B4B40F275
S31502000B20DC5683FB04364FF000014FF020001346DB
S31502000B30C8BFA6EBE47659F8047FBE4203DC002B5D
S31502000B400A46B8BF0B46013801F10101F3D1002B69
S31502000B506ADBD11A0131480207EE900AF8EEE77A0B
S31502000B60042987EEA88A40F3B780B4F5FA6F6BDAE8
S31502000B7021461B480BF0F0FF0026344611E508F02B
S31502000B801FFC0022594608F0B5FFD94408F10108B6
S31502000B9058E700BFAFF3008000000000804DC04060
S31502000BA0C4680022C068002284000022208C0268E9
S31502000BB090680022FC000102580101020000006850
S31502000BC00C680022FE030068086800225655555537
S31502000BD0A8020102C80201021E9002688C68002265
S31502000BE0400201027C6500220C680022099AC83282
S31502000BF04245B8BF42469A427FF763AE059B013330
S31502000C00052B059340F3A980059B0D2B7FF7C9ACF5
S31502000C1008F0D0FB0E28054600F3AF8008F0DAFB99
S31502000C20032300250793BCE484480BF0FDFFA3E7EA
S31502000C300B6853457FF635AE81480BF0F5FF2EE67D
S31502000C4080480BF0F1FFACE4023B23EAE373033284
S31502000C501F2AD4BFC3EB0201C3F11F017A4A013135
S31502000C6002EB8320490208F0D3FB08F0A3FB0D2711
S31502000C70064606FB07F7314674480BF06DFF002F58
S31502000C801BDD4FF00009DFF800B207F1FF3808F06C
S31502000C9097FB00EB8903D3ED007AC1456C4BB7EEA7
S31502000CA0E77AA8BF5B466B48009309F1010953EC4A
S31502000CB0172B0BF051FF4F45E9D167480BF0B4FFF4
S31502000CC008F088FBB7EEC87A224631468DED007BE6
S31502000CD062480BF041FF4FE7B7EEC87A604853EC23
S31502000CE0172B0BF039FF47E70B9A9A422DDB08992F
S31502000CF0049A9942B8BF19460132052A049208910C
S31502000D007FF74FAC0D9A0998024402EBD272B1EB0F
S31502000D10620F19DAC0EB00120A4402F10F03002A2D
S31502000D20B8BF1A46131103F5FA7209930C9203F22D
S31502000D30F3125B00CDED087A04950B920D9330E425
S31502000D4048480BF071FF55E60893049529E4464896
S31502000D5026460BF069FF012423E438464FF400715E
S31502000D6008F01EFB1DE40EF09FFCF0EE407A0FE643
S31502000D700EF09AFCB0EE408A7FE508F021FB069B56
S31502000D8007462946E3B90BF045F8069000283FF4DA
S31502000D9045AF364D36482B6803F59C5A0AF070FA71
S31502000DA02B68344A03F57A7333480AF1080A13604A
S31502000DB00BF03AFF32E70EF077FCF0EE407A99E656
S31502000DC008F016FF10F1020F804628D0B0F1FF3F5F
S31502000DD01ED00023294A0028136002DB09F03AF9E3
S31502000DE020BB294638460AF007FD0023234A00287D
S31502000DF01360FFF613AF4FF0000A04F0F1FF1B4B2E
S31502000E001C4A1B68CDF818A003F5FA53136005E7D0
S31502000E1009F020F940B11A4B184A1360E1E709F0CC
S31502000E2019F900287FF4FAAE0023F5E7154A08F10E
S31502000E300103136009F06CFBD3E700BFF401010262
S31502000E402C030102A4010102208C0268680201023D
S31502000E505CFF0002A00201025804010270020102B4
S31502000E601C0201020C0301020C010102C4680022E9
S31502000E7048030102C06800224C030102000101225C
S31502000E800AD7233DA4000122E8110102022800D05C
S31502000E90704708B50449054801F0E4F8BDE8084082
S31502000EA0012003F019B900BFBC150102C86800226F
S31502000EB008B5FFF701FB002008BD00BF03469B688B
S31502000EC000201A6861F3C3021A60704703469B68E2
S31502000ED000205B68C3F340630B70704784460020B2
S31502000EE0CCE90932CCF82010704700BF10B58268F1
S31502000EF00446136823F0705323F0030343F0007390
S31502000F0013608268136923F00C0313614368DA687D
S31502000F1022B1936810681B69984763689A6822B180
S31502000F20936810681B69984763680022DB79A16899
S31502000F30DB070B61C4E90322C4E9052210BD00BF29
S31502000F4008B5FFF7D3FF002008BD00BF30B48368A1
S31502000F501D6805F0030231EA02041FD00ABB5A6873
S31502000F6092011ED51A6942F003041C6183681A6154
S31502000F70846823699342FCD18B0745EA010544BF85
S31502000F8045F0005542F00802CB0748BF42F0040282
S31502000F902261836848BF45F080651D60002030BC31
S31502000FA07047082030BC704730B5816883694C6948
S31502000FB0057FC4F305249C4228BF1C46022D4269C4
S31502000FC038D0012D1CD065BBB4B1234600E0816840
S31502000FD0097F013B02F8011BF9D1D0E90532017FF5
S31502000FE0121B04FA01F10B44C0E905324FF48032B8
S31502000FF0836859695A61836903B14369436130BDA4
S31502001000002C3AD06300023B5B08013300E08168A2
S31502001010898B013B22F8021BF9D1057F426945B350
S31502001020836904FA05F51B1B2A44C0E90523002C33
S31502001030E2D0DBE70CB31346C969012C43F8041B63
S3150200104011D002EB8402A2EB030EAEF1040E4FEABC
S315020010509E0E0EF1010E4EF001E08268D26943F84F
S31502001060042B0FF007C0057F4269012D03D0002D26
S31502001070D6D18168A9E78168C4E7AC402244C0E9B9
S315020010800523B9E730B5436A83B004460A466D467E
S315020010908BB193E8030085E803001A71A26A184629
S315020010A01A60236A9847636A1BB195E8030083E8CE
S315020010B0030003B030BD2B46EFE700BF38B500236F
S315020010C0012182680360136082682D4D13614368B3
S315020010D0044693F921305A0903F01F0301FA03F378
S315020010E0203245F82230BFF34F8FBFF36F8F43682C
S315020010F093F92020002A0BDB530902F01F029140CC
S31502001100203345F82310BFF34F8FBFF36F8F436829
S3150200111093F91F20002A0EDB01211948530902F018
S315020011201F02203301FA02F240F82320BFF34F8F49
S31502001130BFF36F8F6368DA6822B1936810681B6A1F
S31502001140984763689B681BB19A681868136A984740
S31502001150EFF31085012181F310886368094A1B6841
S315020011609068C3F1080301FA03F30343936093689B
S315020011701E2002F0C3FE85F31088002038BD00BF92
S3150200118000E100E0003020402DE9F041934F0A686B
S3150200119091F8048017440C46054646463F02B8F1CC
S315020011A0000F08D0B8F1010F1ABF4FF000564FF0EA
S315020011B002084FF08056A368ABB102225B6807F1C2
S315020011C018011B689960A36846F008415B681B68B2
S315020011D01960A3685B681B68DA81A3689A68D3E919
S315020011E0000112689047E368BBB102225B6807F10F
S315020011F01C011B6846F000465960E36846F4C016B7
S315020012005B681B681E60E3685B681B68DA81E368DB
S315020012109A68D3E9000112689047C5E9014785F843
S315020012201C8094F92130A27F002BC0F2BE801201ED
S3150200123003F16041D2B201F5614181F800236848A9
S31502001240684A40F8235003F5C65152F8216026F445
S31502001250803642F8216052F82110BFF35F8F0126D3
S3150200126003F01F015B099B0003F1604303F5614331
S3150200127006FA01F1C3F88011196094F92030002BA7
S3150200128022DB217F03F160470901C9B207F56147F5
S3150200129087F8001340F8235003F5C65152F821701F
S315020012A027F4803742F8217052F82120BFF35F8F6E
S315020012B003F01F025B099B0003F16043964003F5AE
S315020012C06143C3F880611E6094F91F30002B25DB51
S315020012D0627F03F160411201D2B201F5614181F8E8
S315020012E00023404A40F8235003F5C65152F8210024
S315020012F020F4803042F8210052F82120BFF35F8F9C
S3150200130001215A09920003F01F0302F1604202F51D
S31502001310614201FA03F3C2F8803113606779E27918
S3150200132023793F0447EA823747EAC347023B032B46
S3150200133047F4007398BF1F46012A4FEAC2763CD093
S315020013404FF0000823692B6200236269C5E909325E
S31502001350EFF31084012181F310886B68224A1B681F
S315020013609068C3F1080301FA03F320EA03039360CA
S3150200137093681E2002F0C2FD84F31088AA6846F420
S3150200138080331760AA681361AB681E61AA68136985
S31502001390B342FCD140F601715162144BAA68002097
S315020013A0C2F820802B60BDE8F081114903F00F00DE
S315020013B01201D2B201440A7641E794F80680A36983
S315020013C0B8FA88F85A781B784FEA58189B0743EA06
S315020013D002131F434FEA0828B4E700BFD025400096
S315020013E0E86A002200600040003020404953530062
S315020013F0FCEC00E070B54568037FAD68044622FA4E
S3150200140003F3BDB1A868C3F34F03866800222868B8
S31502001410B047034660B9C4E90303A26853689B0058
S3150200142005D42046BDE870400221FFF78FBD0D238B
S31502001430184670BD0846EEE7F8B5154643680E46EF
S31502001440DA68017F044625FA01F33AB15B08013BEB
S3150200145010D10222354413468A40AE1AC4E9056306
S31502001460A26853685B010FD42046BDE8F84001210B
S31502001470FFF76CBD916810688F68324600219BB2F7
S31502001480B84710B9217FE4E70C20F8BDF8B5154638
S3150200149043680E46DA68017F044625FA01F382B1F3
S315020014A05B08013B08D0916810688F6832460021BC
S315020014B09BB2B84740B9217F0222354413468A407F
S315020014C0AE1A0020C4E90563F8BD00BFF8B5174699
S315020014D04268047F926805461E4623FA04F40AB35C
S315020014E0C4F34F0394681068A4680022A047044618
S315020014F0B0B90346C5E90334324639462846FFF7F2
S31502001500C5FF044660B9AB685B689A000CD45B0100
S3150200151005D42846BDE8F8400321FFF717BD0C2481
S315020015202046F8BD0B46E5E70D24F9E710B5EFF3C3
S315020015300383103B0D4A5BB203F5C65152F82140B4
S315020015400B4824F4803450F8230042F8214052F824
S315020015502130436923B1FFF727FD836903B110BD2B
S315020015600221BDE81040FFF78DBD00BF00600040BC
S31502001570E86A002210B5EFF303830021114A103BFB
S315020015805CB252F8240083685A685960930111D4F8
S3150200159043690BB1FFF708FDFFF7A8FC0A4A04F5F9
S315020015A0C65352F8231021F4803142F8231052F820
S315020015B0233010BD83681A6861F359621A60FFF717
S315020015C061FDEBE7E86A0022006000400346002066
S315020015D0C3E90612704700BF844610B4406A8368A6
S315020015E023F440138360DCF82440A36C5800FCD536
S315020015F0A36823F01003A360DCF82440237FC3F31F
S315020016000010DB06FAD4CCE90412A36843F01013E7
S31502001610A3605DF8044B704784460020CCE90B3288
S31502001620CCF82810704700BF4FF0FF330020C1E905
S31502001630003370478B0784461DD5426A936823F4AC
S3150200164040139360426A936C5800FCD5936823F06A
S3150200165010039360DCF82400037FC3F30012DB0659
S31502001660FAD41046CCF81420CB0703D5002318462B
S31502001670CCF81C3070470620F6E700BF034600226E
S3150200168010B4DC6910460C60DA615DF8044B7047F1
S315020016900620704730B40124164D530902F01F0C80
S315020016A0203304FA0CF445F82340BFF34F8FBFF3FF
S315020016B06F8F114B02F5C65C53F82C4024F480342C
S315020016C043F82C4053F82C300901002AC9B207DB33
S315020016D00A4B154485F8001343F8220030BC7047C4
S315020016E0074B02F00F0423441976044B43F82200F9
S315020016F030BC704700E100E000600040E86A00226A
S31502001700FCEC00E0F0B5C46A85B005460F46944687
S315020017106E46B4B194E80F0086E80F002B6A2046A5
S315020017201B78A760236084F804C02B6BE360AB6A66
S315020017309847EC6A1CB196E80F0084E80F0005B0E2
S31502001740F0BD3446EAE700BFF8B5394B42689A4223
S315020017506BD10446426A936823F440139360426A4B
S31502001760936823F010039360426A137FC3F3001554
S31502001770DB06FAD40121236A2E4A93F90730580967
S3150200178003F01F03203001FA03F342F82030BFF3BF
S315020017904F8FBFF36F8F236A93F90930580903F00D
S315020017A01F0301FA03F3203042F82030BFF34F8FB4
S315020017B0BFF36F8F606A836823F480338360236A82
S315020017C093F90530580903F01F0301FA03F3203099
S315020017D042F82030BFF34F8FBFF36F8F236A93F91E
S315020017E00B30580903F01F0301FA03F3203042F8C5
S315020017F02030BFF34F8FBFF36F8FEFF3108681F365
S3150200180010884FF00043276A0B4A97F800C05068C9
S3150200181023FA0CF30343536053681E2002F06EFB57
S3150200182086F3108865602846F8BD0720F8BD00BF1C
S315020018304249435300E100E000302040002370B5E6
S31502001840026AD56983606B7C03B970BD184B044686
S3150200185093F8543003F00F03072B24D8DFE803F084
S31502001860040404211F191B1D01269E40104B93F8E8
S31502001870550000F00F0002F0D9FAB0FBF6F00D4B5E
S315020018801A686B7C02FB03F3B3FBF0F30133A3602C
S3150200189070BD0326EAE70526E8E70A26E6E70826F4
S315020018A0E4E70626E2E71026083B9E40DEE700BF95
S315020018B000E00140786B0022F8B5002704460E4688
S315020018C0416A8D6825F4441222F011028A6007618A
S315020018D0FFF7B4FF636A326825F440151A61636A3A
S315020018E038469D60F8BD00BF0620704700222DE9EC
S315020018F0F04101270B78027003F5800303F5565376
S315020019001B02436201624B690D4683628B69044680
S31502001910C0E90B238378CE6967F3010383704B78A2
S31502001920934214BF3A460222837862F3010383701C
S3150200193091F90B20897AFFF7ADFE95F905202979F1
S31502001940FFF7A8FE95F90720A979FFF7A3FE95F9F7
S315020019500920297AFFF79EFEEFF3108887F3108895
S315020019604FF000412A787B4BD1405A6822EA0102A5
S315020019705A605B681E20394602F0C0FA88F3108866
S315020019804FF48062636A9A606B78E978EA691B02AF
S31502001990890301F4804103F440730B4311785068C4
S315020019A0090601F040710B435178C90389B20B4312
S315020019B0517B490501F400110B43616A43F48053DC
S315020019C04B611378991EB94240F2BD800368616A81
S315020019D00B61117BAB7801F0030141F0300133B1A9
S315020019E0022B14BF4FF440734FF48073194393785C
S315020019F000201B0703F080530B43616ACB6001236F
S31502001A00616A886129788B40C3F3090313B1636A5B
S31502001A10514959620025937BD17B127C01F01F014B
S31502001A2003F0010302F01F0243EA0123616A43EA5B
S31502001A3002430B632046C4E90455C4E90655FFF781
S31502001A40FDFE7089626A4549A0819166226A444B0D
S31502001A5092F9052002F5C65153F8210065F31040AC
S31502001A6043F8210053F82110BFF35F8F012102F0E2
S31502001A701F005209920002F1604202F5614201FA28
S31502001A8000F0C2F880011060226A92F90B2002F57A
S31502001A90C65053F8206065F3104643F8206053F8A9
S31502001AA02000BFF35F8F02F01F005209920002F17D
S31502001AB0604201FA00F002F56142C2F8800110604C
S31502001AC0226A92F9072002F5C65053F8206065F3A0
S31502001AD0104643F8206053F82000BFF35F8F02F0F0
S31502001AE01F005209920002F1604201FA00F002F56B
S31502001AF06142C2F880011060226A92F9092002F559
S31502001B00C65053F8206065F3104643F8206053F838
S31502001B102030BFF35F8F53099B0002F01F0203F1CF
S31502001B206043914003F56143C3F8801119600D4A81
S31502001B30636A9A60626A137FDB07FCD50A4B002050
S31502001B406360BDE8F0810949022B094B18BF0B46B9
S31502001B503DE700BF0030204000001F1F1000079D18
S31502001B6000600040110401004249435304FF00FF94
S31502001B7024FF00FF38B5EFF30383103B254A5BB21F
S31502001B8003F5C65152F8210020F4803042F82100B4
S31502001B9052F82120204A52F82340236A1B69B3B126
S31502001BA0636903B138BD636A9D68A06825F4801530
S31502001BB045F4001518BB00219D60A36A2161002B24
S31502001BC0F0D02046BDE838408022FFF79BBD62690F
S31502001BD0636A002AE8D0A278216902F00302022A87
S31502001BE011D00A781A71A278D4E9041302F003021A
S31502001BF09B1A1144C4E90413002BD3D1D3E702F094
S31502001C0077F9636AD7E70A8822F4DC4292B25A600D
S31502001C10E9E700BF00600040E86A002210B582B022
S31502001C20EFF30383103B1F4A5BB203F5C65152F82A
S31502001C30210020F4803042F8210052F821201A4A6D
S31502001C4052F82340A27802F00303022B636A0CBF08
S31502001C5019681978E3690CBFC1F30801C9B2019189
S31502001C6043B9A36AB3B10422204602B0BDE81040CC
S31502001C70FFF748BD02F0030201A9A0690BF0BDF906
S31502001C80D4E90621A37803F003031A44C91AC4E966
S31502001C90062109B102B010BDA36A002BFAD00122B7
S31502001CA0E2E700BF00600040E86A002210B5EFF3E9
S31502001CB003830F4A103B5CB252F82400426A9368CF
S31502001CC023F4401323F010039360836A1BB10222AC
S31502001CD00021FFF717FD074A04F5C65352F82310F1
S31502001CE021F4803142F8231052F8233010BD00BF90
S31502001CF0E86A00220060004038B5EFF303831D4A0C
S31502001D00103B5CB252F824008378456A03F0030361
S31502001D10022B0CBF29682978AA6C08BFC1F30801F7
S31502001D20C2F30073C2F3006C4FEA031343EA4C1387
S31502001D30C2F3C06243EAC20C18BFC9B2DB066246EE
S31502001D4004D5AB6C1B0458BF4CF04002AB6E43F09B
S31502001D50C853AB66836A0BB1FFF7D4FC064A04F597
S31502001D60C65352F8231021F4803142F8231052F858
S31502001D70233038BDE86A0022006000400022034694
S31502001D8010461A60704700BF10B40B0A064C1B01BE
S31502001D9053FA81F154F821300020C3F340035DF871
S31502001DA0044B1370704700BF00084040090A4901FE
S31502001DB001F1804101F580014B68002013807047D4
S31502001DC0090A490123EA020C01F180411A4001F590
S31502001DD0800142EA0C4200208A60704700200123FB
S31502001DE08242CAB203FA02F39AB24FEA034308BF27
S31502001DF01A460B0A5B0103F1804303F580039A60DE
S31502001E00704700BF10B4090A490101F1804101F58A
S31502001E1080010C6802EA030C4CEA040C62EA030233
S31502001E2002EA0C020A6000205DF8044B704700BF0C
S31502001E30090A490101F1804101F580014B68002040
S31502001E40C3F30F4313807047012310B44FEA112CDA
S31502001E504FEA4C1C0CF1804C0CF5800CDCF804406B
S31502001E60C9B28B4099B203EA14435B1AB3FA83F3FD
S31502001E705B0900205DF8044B13707047090A49019B
S31502001E8023EA020C01F180411A4001F5800142EA7F
S31502001E900C420020CA607047012010B40B0A5B0195
S31502001EA003F1804303F58003C9B2DC6800FA01F14D
S31502001EB0012A4FEA01400DBF84438C4304430C437D
S31502001EC0DC6000205DF8044B704700BF2DE9F84F37
S31502001ED00388DBB14FF0000A80464FF00109DFF8B4
S31502001EE0D4B00024314D4FEACA07D8F8043035F889
S31502001EF0022BD919898891420AD00134032CF4D1D4
S31502001F00B8F800300AF1010A5345EAD8BDE8F88F5D
S31502001F10DB5909FA04F603F0B853B3F1807F244B78
S31502001F20F6B293F84C2C12D0324230D104F1200290
S31502001F301BF81230DB09E0D01BF81230012123F026
S31502001F408003C8200BF8123001F0D8FFD5E73242E1
S31502001F5010D004F120021BF81230DB09CDD11BF898
S31502001F601230012143F08003C8200BF8123001F031
S31502001F70C5FFC2E7012002F06DF80D4B012093F870
S31502001F804C2C324383F84C2C02F034F8E1E7012062
S31502001F9002F060F8064B012093F84C2C22EA060266
S31502001FA083F84C2C02F026F8C0E700BFB8190102EC
S31502001FB000E0014000202040F8B50646FFF786FF04
S31502001FC0EFF31082012383F31088234F3B681BB97A
S31502001FD0402022490B7508753B6801333B6082F34A
S31502001FE01088338800211BB31D4D08E01B011344E2
S31502001FF045F82340328801318BB29A4218D9736868
S3150200200053F8314003EBC1029288E0034FEA1223F0
S31502002010D2B2EBD502EB031055F820E024F4803C53
S315020020202EF4803E45F820E01B0145F820C0DEE78D
S31502002030EFF31082012383F310883B6813B13B68E8
S31502002040013B3B603B681BB9802004490B75087550
S3150200205082F31088F8BD00BFE46A0022000D4040FA
S315020020600008404008B5034B03600846FFF7A4FF8B
S31502002070002008BD54524F5008B50846FFF79CFF92
S31502002080002008BD70B5012686B001AB03A80C4638
S3150200209015460493ADF80C60ADF808100192FFF7EF
S315020020A015FFEFF3108186F310881D4B1A681AB9D3
S315020020B01C480275402202751A6801321A6081F3C1
S315020020C01088E9034FEA1422E4B219D41101164822
S315020020D00A1940F82250EFF31082012181F3108889
S315020020E0196811B11968013919601B681BB980207A
S315020020F00C490B75087582F31088002006B070BD76
S315020021000948110104EB021250F8226026F48036C7
S3150200211040F8226025F4803640F82260D7E700BFF7
S31502002120E46A0022000D40400008404003460020B9
S3150200213059601A72704700BF84460020CCE90E32FD
S31502002140CCF83410704700BF0346044ADB6800200F
S315020021509B1AB3FA83F35B090B70704743494952E2
S3150200216030B5836B83B004460A466D46A3B193E845
S31502002170030085E80300E16B1A7119601846636B68
S315020021809847A36B1BB195E8030083E8030000237D
S3150200219084F82B3003B030BD2B46ECE730B5454B07
S315020021A083B01B6A01690193019B03F00F2301931C
S315020021B0019A019D0B7C90F82C409CB9C2F3032234
S315020021C0DBB2A2EB156293409B0804D1082003B050
S315020021D030BD013BFAD04A78C2F3C014D209F8D115
S315020021E0CC710169002390F826408569026880F85F
S315020021F02B30C56180F82D3080F8274080F82E30CC
S3150200220080F8283080F82F30036280F83030546A24
S31502002210227894F801E0012A14BF4FF0040C4FF023
S31502002220050C6279120142EA4E0294F806E042EA8D
S31502002230CE124CEA0202D2B2CA7001690A7942F09F
S3150200224010020A7101690A7963F3C3020A7101690C
S315020022500A7963F304120A710269E179137961F367
S31502002260C71313710269537943F00103537103686B
S3150200227093F90F30002B07DB012203F01F040E49EE
S315020022805B09A24041F82320BF210269537A03F079
S31502002290F30353720369D97190F82C302BB10023E2
S315020022A080F82C30002003B030BD022203695A7038
S315020022B0F8E700BF00E0014000E100E090F808C046
S315020022C0C0E90512BCF1010F80F82A3008D10022BC
S315020022D0436880F826C05B0080F8243080F8252009
S315020022E0002380F82930FFF759BF00BF90F808C0D5
S315020022F0C0E90512BCF1010F80F82A300AD100228A
S31502002300436880F826C05B0043F0010380F824305E
S3150200231080F82520012380F82930FFF73FBF00BF50
S3150200232070B40024402203691C7003691A700269A2
S3150200233013785B06FCD5C0231370036802695B6AD7
S31502002340804D1B794FF0000C43F0E00313740368D1
S3150200235002695B6AB324DB7843F0E00353740368D3
S3150200236002695B6A9B781B0103F0700343F0080362
S315020023709370036802695B6A1E78012E5E7814BF49
S315020023800423052343EA4603DBB2D37003685B6882
S31502002390AB4214BF7722F72203695A71036983F8A5
S315020023A006C00369DC7191F911204B7B6245C0F2CC
S315020023B0AA801B0102F16044DBB204F5614484F891
S315020023C00033614C614B44F8220002F5C65553F8BE
S315020023D0256026F4803643F8256053F82530BFF38E
S315020023E05F8F012553099B0002F01F0203F1604330
S315020023F003F5614305FA02F2C3F880211A6091F9E6
S315020024000F204B7B002AC0F295801B0102F160452A
S31502002410DBB205F5614585F800334C4B44F82200E2
S3150200242002F5C65553F8256026F4803643F8256032
S3150200243053F82530BFF35F8F012553099B0002F045
S315020024401F0203F1604303F5614305FA02F2C3F882
S3150200245080211A6091F910204B7B002A63DB1B0155
S3150200246002F16045DBB205F5614585F80033374B6D
S3150200247044F8220002F5C65553F8256026F4803644
S3150200248043F8256053F82530BFF35F8F01255309C2
S315020024909B0002F01F0203F1604303F5614305FA54
S315020024A002F2C3F880211A6091F90E204B7B002AB2
S315020024B031DB1B0102F16041DBB201F5614181F8BA
S315020024C00033224B44F8220002F5C65153F821404C
S315020024D024F4803443F8214053F82130BFF35F8F50
S315020024E0012153099B0002F01F0203F1604303F529
S315020024F0614301FA02F2C3F880211A609F2203693E
S315020025001A7070BC7047124C02F00F051B01DBB249
S315020025102C44237655E70E4902F00F051B01DBB268
S3150200252029440B76CDE70B4D1B0102F00F06DBB2F9
S31502002530AB559CE7074D1B0102F00F06DBB2AB550C
S315020025406BE700BF40420F00E86A002200600040CD
S31502002550FCEC00E014ED00E0F8B500250A781C4B0F
S31502002560016013441B0203618B680E4643600B7BBA
S3150200257004460372CB6943630B6A80F82950C3632E
S3150200258080F82A50856380F82B50C0E90555C0E9CA
S31502002590075580F82C50EFF31087012181F310883C
S315020025A00C4A33785068C3F1090301FA03F320EAAF
S315020025B00303536053681E2001F0A0FC87F31088C2
S315020025C020463146FFF7ACFE034B2846E360F8BDD2
S315020025D0E0254000003020404349495238B50025E5
S315020025E003690446DD710168FFF79AFEB32290F88B
S315020025F02600A169236984F82C5084F82800E56135
S31502002600216284F82A50DA71284638BD70B5002551
S3150200261004460369DD710168FFF782FEB3200121DA
S3150200262094F8263084F82C5084F82830A36984F86C
S315020026302A50C4E9075323692B4AD8712369DD71ED
S315020026402368E56093F91130580903F01F0301FA74
S3150200265003F3203042F82030BFF34F8FBFF36F8F62
S31502002660236893F90E30580903F01F0301FA03F3A6
S31502002670203042F82030BFF34F8FBFF36F8F2368AD
S3150200268093F91030580903F01F0301FA03F32030BF
S3150200269042F82030BFF34F8FBFF36F8F236893F951
S315020026A00F30580903F01F0301FA03F3203042F8F2
S315020026B02030BFF34F8FBFF36F8FEFF3108681F396
S315020026C010882368094A1B785068C3F1090301FA86
S315020026D003F30343536053681E2001F00FFC86F395
S315020026E01088284670BD00BF00E100E0003020409F
S315020026F010B582B0EFF30383103B5F4A5BB203F57A
S31502002700C65352F8231021F4803142F8231052F8AE
S315020027102330EFF30383594A103B5BB252F823404E
S3150200272094F82D305BBBA369022B22D9E369012BF6
S315020027300ED12269137943F01003137122691379BA
S3150200274043F0080313712269137923F010031371FE
S3150200275023685B6ADB79002B3ED101222369DB7C8D
S31502002760DBB28DF807309DF8073084F82D2002B0D1
S3150200277010BD2269137943F040031371D6E7E3696A
S31502002780002BF4D02268526AD279FAB9032B17D0F9
S31502002790022B26D0012B34D02269236AD17C6269AE
S315020027A0D154D4E907320132013BC4E90732002B86
S315020027B0DDD121690A7963F386120A7102B010BD6E
S315020027C02269137943F040031371E5E70521204698
S315020027D0FFF7C6FCE369D9E705212046FFF7C0FCEF
S315020027E0BBE72269137943F0100313712269137947
S315020027F043F0080313712269137923F0100313714E
S31502002800CAE794F82A2072B322681D4892F90F206B
S31502002810510902F01F0203FA02F2203140F8212088
S31502002820BFF34F8FBFF36F8F04202169CA7942F03D
S315020028308002CA7121690A7942F010020A7121697D
S315020028400A7922F008020A7121690A7922F0100235
S315020028500A712269507021694A7922F001024A718D
S3150200286084F82C3098E708212269537A03F0F7039B
S315020028705372236959708FE700600040E86A0022AC
S3150200288000E100E010B5EFF30383103B434A5BB26D
S3150200289003F5C65352F8231021F4803142F823106F
S315020028A052F82330EFF303833D4A103B5BB252F8F2
S315020028B0234094F82730002B40D194F82930002B7E
S315020028C03BD123685B6ADB792BB194F82B3013B9C1
S315020028D0236A002B5CD1E3692169002B41D1CB79B4
S315020028E0C02223F08003CB71216901E0013A02D0B4
S315020028F0CB79DB09FAD12368284A93F9103003F51C
S31502002900C65352F8231021F4803142F8231052F8AC
S315020029102330236893F91030002B09DB01215A0971
S31502002920204803F01F03603201FA03F340F8223015
S315020029302269D37943F04003D37110BD94F826304F
S31502002940032B1CD094F8242023699A7494F8282027
S3150200295094F827300132013B84F8282084F8273086
S3150200296010BD236A6269D35C8B74D4E907320132E3
S31502002970013BC4E90732002BDFD12169AFE794F8A6
S315020029802830022BDED194F83030002BDAD110BD7C
S3150200299005212046FFF7E4FB9DE700BF00600040EB
S315020029A0E86A002200E100E038B5EFF30383344A17
S315020029B0103B5BB252F8234023685B6ADB79002B3B
S315020029C04BD194F829301BB194F82730012B52D001
S315020029D0E369E3B12169C023CA7922F04002CA71D0
S315020029E0216901E0013B02D0CA795206FAD4EFF31B
S315020029F00383103B234A5BB203F5C65352F82310F6
S31502002A0021F4803142F8231052F8233038BD94F86D
S31502002A102A203AB3012022681B4D92F90F20510950
S31502002A2002F01F02203100FA02F245F82120BFF31C
S31502002A304F8FBFF36F8F4FF0040C2169CA7942F0B2
S31502002A408002CA71226982F801C021694A7963F358
S31502002A5000024A7184F82C00BCE705212046FFF7E4
S31502002A607FFBAEE708212269537A03F0F70353721C
S31502002A7023695970AEE794F83030002BAAD0A7E745
S31502002A80E86A00220060004000E100E038B5EFF39A
S31502002A9003834F4A103B5BB252F823000269537A12
S31502002AA0517ADC0601F0E00151725FFA83FC03F011
S31502002AB003022CD50369597849064ED40024012510
S31502002AC080F82B50DC710168FFF72AFCB32290F8DC
S31502002AD02630816980F82830036980F82C4001622B
S31502002AE0C46180F82A402946DA71FFF739FBEFF311
S31502002AF00383103B374A5BB203F5C65352F82310E1
S31502002B0021F4803142F8231052F8233038BD002ACE
S31502002B105CD11CF0080F11D0C369002B45D190F887
S31502002B202B30002B41D1B32290F829100369C1F151
S31502002B300301C9B2DA71FFF713FBD8E790F82C202C
S31502002B400CF0040342B3002BD1D0C369002B3BD156
S31502002B5090F82B30002B37D1E5E7002AAED15A7810
S31502002B60C2F380115206D4D5082280F82B105A706F
S31502002B70036801695A6A94791378527943EAC4134D
S31502002B8043EA021343F00203DBB2CB7002695379C4
S31502002B9043F001035371AAE7002BA8D003685B6ACE
S31502002BA0DB79002BA3D00421C5E70023B32190F8DB
S31502002BB026508469026980F82C3080F82850046215
S31502002BC0C36180F82A30D1710121B4E7036975E740
S31502002BD0E86A00220060004003460020D3E902238F
S31502002BE09360704703460020D3E90223536070477F
S31502002BF003460020D3E90223D3607047034670B42C
S31502002C005A689E68D26900209168D46841F00045EE
S31502002C10516875619D6844F00044AC619C6841F05E
S31502002C2000412161146999684C629B6852699A62F3
S31502002C3070BC704703464FF00041002210B49C68F6
S31502002C40104621619C6861619C68A16199684A622B
S31502002C509B689A625DF8044B704700BF83684A1E00
S31502002C609A6643681B782BB9836849080139596506
S31502002C70836899658368D96AC90707D44FF4AA019C
S31502002C805A6683681964D0E90232DA600020704716
S31502002C90032A836809D0042A08BF032212320139A3
S31502002CA003EB82030020596070470422F6E700BF57
S31502002CB003469A680020D26AC2F300020A719B6830
S31502002CC09B6C0B60704700BF84460020CCE906323D
S31502002CD0CCF81410704700BF70B5836984B00446FF
S31502002CE08C46164601AD9BB193E8070085E80700BE
S31502002CF083F804C09E60E26918461A6063699847C1
S31502002D00A3691BB195E8070083E8070004B070BD0C
S31502002D102B46EDE730B48C6E01342AB1944203D9C6
S31502002D2030BC013A1A607047029D496B0078ED0784
S31502002D3054BF01F01F01C1F30441032808D9090950
S31502002D4081F001016AB9A1B930BC02225A6070470A
S31502002D5001F00C01A1F10401B1FA81F14909002A3D
S31502002D60F1D0944201D80029EED130BC03225A6038
S31502002D707047002CE8D0F8E72DE9F04F4FF0FF3A04
S31502002D804FF0000B866885B0009202AB0746884674
S31502002D901446406802F003090A463146CDE902AB01
S31502002DA0FFF7B8FF039B356B93B914F0080F14BFF6
S31502002DB004220222A107029820D502F1120106EB93
S31502002DC081014860B968133201EB82014860BE682E
S31502002DD062061BD5326CB9F1010F42F480023264ED
S31502002DE027D025F44035BE6845EA0345B9F1000F00
S31502002DF016D10020356305B0BDE8F08F4A44123281
S31502002E0006EB820250606206BE68E3D4B9F1010F96
S31502002E1023D025F44035022C45EA0345E6D173B9A1
S31502002E2025F0407545EA03650020356305B0BDE827
S31502002E30F08F25F04075BE6845EA0365F4E7012484
S31502002E40786802AB424631460094FFF763FF039B64
S31502002E5025F0407545EA0365E6E7022CE0D1DEE798
S31502002E6030B582681E4D526E1E4B01328A608268F0
S31502002E701B68D06A2C6AAA8C04F00F0502F00F0CAC
S31502002E8045EA0C0E1EF0080FC0F3C35013D092B2DF
S31502002E9012F0080F18D1012214F0080F02FA0CF2F0
S31502002EA01BD0032504F0070405FA04F402FB03F31E
S31502002EB0B3FBF4F302E003FA0CF3EB400122C34046
S31502002EC04B6000200A7030BD4FF0030C02F007027F
S31502002ED014F0080F0CFA02F2E3D10124AC40E5E744
S31502002EE000E00140786B002230B44268034692F952
S31502002EF01210D269002911DB01244F4D480901F055
S31502002F001F0C203004FA0CF445F82040BFF34F8F13
S31502002F10BFF36F8F0024494840F8214092F92810E8
S31502002F20002911DB0124444D480901F01F0C203011
S31502002F3004FA0CF445F82040BFF34F8FBFF36F8FAE
S31502002F4000243E4840F8214092F92910002911DB5D
S31502002F500124394D480901F01F0C203004FA0CF403
S31502002F6045F82040BFF34F8FBFF36F8F00243348DD
S31502002F7040F8214092F92A10002911DB01242E4D36
S31502002F80480901F01F0C203004FA0CF445F82040E1
S31502002F90BFF34F8FBFF36F8F0024284840F82140BC
S31502002FA092F92B10002911DB0124234D480901F067
S31502002FB01F0C203004FA0CF445F82040BFF34F8F63
S31502002FC0BFF36F8F00241D4840F8214092F92C1060
S31502002FD0002911DB0124184D480901F01F0C20308D
S31502002FE004FA0CF445F82040BFF34F8FBFF36F8FFE
S31502002FF00024124840F8214092F92D20002A11DBC4
S3150200300001200D4C510902F01F0C203100FA0CF080
S3150200301044F82100BFF34F8FBFF36F8F002007499B
S3150200302041F822000020D3E90221186091609B68D2
S31502003030586330BC704700BF00E100E0E86A002236
S315020030404FF0010C2DE9F0430B7C00250CFA03F33B
S31502003050C360C3F30D03B3FA83F35B0941600374E0
S315020030600B7CAC4AAC4F1A44120282604B690E4684
S3150200307043618B690446C0E9065385B0CD69C7F83A
S3150200308010CFEFF310878CF31088097CA34B0A1F2D
S31502003090052A83BF4FF00042CA40D2436FF0006256
S315020030A01B6913409D4A1361136901211E2000F01A
S315020030B025FF87F31088E36819070DD0EFF3108117
S315020030C0012383F31088964AE06853889BB223EA69
S315020030D00003538081F310884FF425400022A36831
S315020030E04FF000411860A368DA62A368DA63A36846
S315020030F09A64337A3078DB05032843F4803008BFBC
S315020031000346A7687068FB62A36801381961A36861
S315020031105961A3689961A1684A62A1688A62A16835
S31502003120AB69CB61A168EB690B62A1688866A1688D
S3150200313048664FF0FF300021CDE9020130782F6D4D
S31502003140002840F0F28101204FF0030E7368D4F894
S3150200315008805B08013B0293C8F85430A268936565
S315020031603278032A03D9A268D365A26813662B6D47
S31502003170D3B92B78A3B133786A78022B4FEA821C33
S315020031804FEA021100F00482032B03D0002A0CBF7F
S31502003190062309233B4343EA0C030B4343F480779C
S315020031A0AB78002B40F0DC8100236268D16991F88C
S315020031B0482001F1300CDA40D2070ED5032B5CF819
S315020031C0232016D0042B21D002F1FF38A26803F186
S315020031D0120902EB8902C2F804800133062B1DD0C4
S315020031E091F84820DA40D207F7D5032B5CF8232062
S315020031F0E8D1A368013ADA6591F84820D30640F18E
S31502003200A9810423042BDCF81020DDD1A368013A3E
S315020032109A6591F848309B0600F19E810123327C23
S315020032209340C3F30D0313B10022A3685A6400232B
S31502003230A2689363A268C2F888302B6D3BB995F8F1
S31502003240213095F820205B0743EA42331F4395F865
S315020032504830002B14BF4FF4A0024FF4AA02A36811
S315020032601A643378012B04D10023A268D364A268BE
S315020032701365A3685F63A26895F85410D36A43EA9C
S31502003280011395F8551043EA4113D362A368C3F8B4
S3150200329030E0A3681863D4E90232DA6096F9123094
S315020032A0002B26DB727C03F1604112011D48D2B26B
S315020032B001F5614181F800231B4A40F8234003F5DA
S315020032C0C65152F8210020F4803042F8210052F80B
S315020032D02120BFF35F8F01215A09920003F01F03D9
S315020032E002F1604202F5614201FA03F3C2F880314B
S315020032F0136095F92830002B35DB95F8222003F16F
S31502003300604112010748D2B201F5614181F80023FA
S315020033100CE000BF20324000003032400030204036
S3150200332000403240E86A0022006000409A4A40F8B3
S31502003330234003F5C65152F8210020F4803042F8AA
S31502003340210052F82120BFF35F8F01215A09920012
S3150200335003F01F0302F1604202F5614201FA03F330
S31502003360C2F88031136095F92930002B27DB95F8D6
S31502003370232003F1604112018848D2B201F561416E
S3150200338081F80023844A40F8234003F5C65152F8D7
S31502003390210020F4803042F8210052F82120BFF3A8
S315020033A05F8F01215A09920003F01F0302F1604266
S315020033B002F5614201FA03F3C2F88031136095F90E
S315020033C02A30002B27DB95F8242003F160411201F5
S315020033D07248D2B201F5614181F800236E4A40F883
S315020033E0234003F5C65152F8210020F4803042F8FA
S315020033F0210052F82120BFF35F8F01215A09920062
S3150200340003F01F0302F1604202F5614201FA03F37F
S31502003410C2F88031136095F92B30002B27DB95F823
S31502003420252003F1604112015C48D2B201F56141E7
S3150200343081F80023584A40F8234003F5C65152F852
S31502003440210020F4803042F8210052F82120BFF3F7
S315020034505F8F01215A09920003F01F0302F16042B5
S3150200346002F5614201FA03F3C2F88031136095F95D
S315020034702C30002B27DB95F8262003F16041120140
S315020034804648D2B201F5614181F80023424A40F82A
S31502003490234003F5C65152F8210020F4803042F849
S315020034A0210052F82120BFF35F8F01215A099200B1
S315020034B003F01F0302F1604202F5614201FA03F3CF
S315020034C0C2F88031136095F92D30002B27DB95F871
S315020034D0272003F16040314D12012F49D2B200F587
S315020034E0614080F8002303F5C65245F8234051F89F
S315020034F0220020F4803041F8220051F82220BFF346
S315020035005F8F01215A09920003F01F0302F1604204
S3150200351002F5614201FA03F3C2F88031136000201A
S315020035201F4B236005B0BDE8F0830128D4F808805C
S3150200353029D00092F268606802AB4146FFF7EAFBC7
S31502003540DDE90232100440EA026040F0030E40F068
S31502003550010001E605232EE60523DCF8142033E6F6
S31502003560E97832780B01022A43EA811312D0032A40
S3150200357003D000290CBF06220922134347EA03435C
S3150200358043F0807710E64FF0030E4FF0FF33E3E58A
S315020035900923FFE50922F0E700600040E86A0022FD
S315020035A0545047002DE9F041EFF30383103B7B4C67
S315020035B059B201F5C65E54F82E008A0020F4803016
S315020035C002F1804244F82E0002F54042D2F800038E
S315020035D0734850F82100456895F800C0ED69BCF1C2
S315020035E0010F09D043692BB1BDE8F0410022114613
S315020035F0FFF772BBBDE8F0814FF00008D0E9027612
S31502003600BE60866803F0FF03C6F848808668C6F87F
S315020036104C808668C6F8508054F82E7068F31047BE
S3150200362044F82E70D2F80023BFF35F8F5D4A490932
S3150200363003F01F030CFA03F3603142F8213095F8C8
S315020036404830D90703D595F92810414576DA9B0704
S3150200365004D595F92930002B80F2888095F92A3015
S31502003660002B53DA95F92B30002B37DA95F92C30EB
S31502003670002B1BDA95F92D30002BB3DB474A03F5F5
S31502003680C65152F8214024F4803442F8214052F8BF
S315020036902120BFF35F8F01215A09424C03F01F0319
S315020036A0603201FA03F344F822309BE73B4A03F502
S315020036B0C65152F8214024F4803442F8214052F88F
S315020036C02120BFF35F8F01215A09364C03F01F03F5
S315020036D0603201FA03F344F82230CBE72F4A03F5AE
S315020036E0C65152F8214024F4803442F8214052F85F
S315020036F02120BFF35F8F01215A092A4C03F01F03D1
S31502003700603201FA03F344F82230AFE7234A03F5A5
S31502003710C65152F8214024F4803442F8214052F82E
S315020037202120BFF35F8F01215A091E4C03F01F03AC
S31502003730603201FA03F344F8223093E701F5C653E7
S3150200374054F8237068F3104744F8237054F8233072
S31502003750BFF35F8F4C0901F01F010CFA01F304F16C
S31502003760600142F8213095F8483070E70B4A03F5BC
S31502003770C65152F8214024F4803442F8214052F8CE
S315020037802120BFF35F8F01215A09064C03F01F0364
S31502003790603201FA03F344F822305FE7006000402A
S315020037A0E86A002200E100E0844630B482B001916A
S315020037B000921E4990F904201D4D51F8220002F58F
S315020037C0C65255F822101B4C21F0807145F8221082
S315020037D09CF9041041F40041E28992B29142FBD075
S315020037E008222274019A0AB1019A4260009A0AB129
S315020037F0009A8260C27802F0C001802914D03F2A62
S3150200380098BFC381182200200A4B09491A749CF9F1
S31502003810043003F5C65351F8232042F0807241F872
S31502003820232002B030BC70478381EBE70000002200
S315020038300060004000AC004006207047062070473A
S31502003840034693F90430054903F5C65351F823207C
S31502003850002042F0807241F8232070470060004049
S31502003860034693F90430054903F5C65351F823205C
S31502003870002022F0807241F8232070470060004049
S31502003880002290F90400124B53F82030C1E90022BD
S31502003890DA783F2A0CD94FF480728A60DA89D2B27A
S315020038A0CA60DA7802F0C002802A09D00020704786
S315020038B04FF480328A60DB8900209BB2CB6070476E
S315020038C04FF480320A609B8900209BB24B6070479E
S315020038D00000002206207047062070470346002299
S315020038E030B593F904C0074C0CF5C65E54F82E1099
S315020038F0054D21F0807144F82E1045F82C201A60EF
S31502003900104630BD006000400000002230B58646F9
S3150200391090F904301D4D03F5C65355F823201C4C6F
S3150200392022F0807245F8232090F9042042F40042E6
S31502003930E3899BB29A42FBD00B46DA789C463F2A31
S3150200394005D9DA89D2B202EB022292B2DA819CF866
S31502003950022010333F2AF0D84FF0080C18220C4BE5
S315020039600C4D83F810C09EF904C0084C45F82C1083
S315020039701A749EF90430002003F5C65354F8232026
S3150200398042F0807244F8232030BD00BF0060004040
S3150200399000AC0040000000222DE9F0412B4B04460A
S315020039A01E780D464EB36B6893F90030002B46DB4A
S315020039B0274850F82320002A44D123712D68BDB12F
S315020039C02B46DA7819463F2A05D9DA89D2B202EBB2
S315020039D0022292B2DA818A7810333F2AF1D808217C
S315020039E018221C4B197494F9041040F821501A74C9
S315020039F0194B00202360BDE8F08101271F70EFF309
S31502003A00108887F31088154B1A6822F480021A6010
S31502003A101B681E20394600F071FA88F31088DFF819
S31502003A20308080223146404609F054FA094BC3F8E9
S31502003A3014801F736B6893F90030002BB8DA0B20E1
S31502003A40BDE8F0810820BDE8F08100BF886A002247
S31502003A500000002200AC00400043544400302040E5
S31502003A60F0B5234B8BB05D6FEA435A67EFF30383DE
S31502003A70103B204A5BB203F5C65152F8210020F4EE
S31502003A80803042F8210052F821201B4A52F8234086
S31502003A9063694BB30021226902912A40E0690092D0
S31502003AA0A769A2680191CDE90320FFB1BC463E4653
S31502003AB0BCE80F00EE4605AD0FC5DCF800302B6002
S31502003AC0BEE80F000FC6DEF80030CCF8003063699E
S31502003AD038469847A4693CB10DF1140CBCE80F00B6
S31502003AE00FC4DCF8005025600BB0F0BD6F46EFE75F
S31502003AF00080344000600040E86A00221D4A92F8C5
S31502003B002630928CDBB202F00F02A2F108010329E1
S31502003B102BD8DFE801F020160C021749174A51F894
S31502003B202330A2FB03231B09154A1360704712496F
S31502003B30124A51F82330A2FB0323114ADB08136011
S31502003B4070470D490D4A51F82330A2FB03230C4A54
S31502003B509B08136070470849084A51F82330A2FBB4
S31502003B600323074A5B0813607047034951F8233061
S31502003B70D340D9E700E0014040630022ABAAAAAADB
S31502003B80786B0022704700BF4AF203529FED924BB8
S31502003B909FED935B38B59848984B9949994CC3E980
S31502003BA0080199499FED906B9FED917B9962A4F86C
S31502003BB0FA23A3EC045F83ED007FFFF79FFF09233F
S31502003BC00A2284F8502A84F8A23094F8003C23B9D9
S31502003BD094F8013C980700F0F8808A4C94F8003C6F
S31502003BE0002B00F0E7800022864B83F8012C83F835
S31502003BF0002C0023834A82F8323092F83C301907AF
S31502003C00FBD540F2234400204FF6021140F6510341
S31502003C107E4DC2F8C850A2F84E4082F84A00C2F859
S31502003C20AC10A2F84C30BFF34F8FBFF36F8F784BB7
S31502003C30596921F400315961C3F85002BFF34F8F1D
S31502003C40BFF36F8F73490B6823F440530B60BFF3C6
S31502003C504F8FBFF36F8F0120137D01F1C04160F3D7
S31502003C60020313750B7DDA06FCD46A4A136843F421
S31502003C7040531360BFF34F8FBFF36F8FA2F57342AA
S31502003C80536913F4003311D1BFF34F8FBFF36F8F14
S31502003C90C2F85032BFF34F8FBFF36F8F536943F4AD
S31502003CA000335361BFF34F8FBFF36F8F0023554A23
S31502003CB082F82A3092F83C309B06FBD50022564BFE
S31502003CC01A701A781A781A785A68FA2A04D0534956
S31502003CD059605A68FA2AFBD14F4B9A687D2A04D05A
S31502003CE04F4999609A687D2AFBD1052242F220113A
S31502003CF0444B4C481862998483F82620FFF7FEFE4F
S31502003D0001211E2000F0FAF8434A5368C3F309035F
S31502003D10642B84BF01231370FFF7F0FE4AF20152AF
S31502003D20414B1A80BFF35F8F01211972BFF35F8F78
S31502003D304FF42540334A188082F8531092F85530D2
S31502003D4043F0400382F8553092F85530DB09FBD038
S31502003D50CA23022082F8540082F8553092F8553070
S31502003D60284903F0BF0382F8553091F85530DB0934
S31502003D70FBD191F87830234A43F0400381F878303A
S31502003D8092F87830DB09FBD0C123022082F870005A
S31502003D9082F8783092F878301A4903F0BF0382F835
S31502003DA0783091F87830DB09FBD14FF42543A1F83E
S31502003DB0FA3338BD0121C82084F8001C00F09EF8B1
S31502003DC094F8003C012BFBD10DE74FF47A70FFF714
S31502003DD0D9FE0EE7AFF30080006CDC0200127A0017
S31502003DE00080000000366E010080000000CA9A3B87
S31502003DF00046C3235543DE138ED73E0D4063002291
S31502003E000008AF2F00E0014000389C1C022B010085
S31502003E1000ED00E000E001E000C01340FA00001EE1
S31502003E207D0000E13234233200200040014B53F87A
S31502003E30200070474063002238B50025284C012136
S31502003E40C82084F8285000F059F884F8245094F8D1
S31502003E502430002BFBD194F82430214943F002038D
S31502003E6084F8243091F82430C3F340009B07F9D438
S31502003E701B4A81F8220092F8223003F0FF00002B41
S31502003E80F9D192F84030164960F3C71382F84030F0
S31502003E9091F84030DB09FBD191F84200104A63F3F6
S31502003EA0C71081F8420092F84230DB09FBD192F842
S31502003EB044000B4963F3C71082F8440091F844307A
S31502003EC0C3F3C014DB09F9D1012000F0C3F8054B96
S31502003ED0012083F84C4CBDE8384000F08BB800BF97
S31502003EE00020204000E00140704700BF00BEFEE710
S31502003EF0A0F101000028FBD1704700BF1E4B1F4AEC
S31502003F001B6800FB01F1934213D302F1854202F5CD
S31502003F10071203F5742302F6834203F23F23A2FB40
S31502003F2003239B0CA3FB01314FF0FF30E1B1FFF7F6
S31502003F30DFBF4FF47A7210B4114C4FF0FF30B4FB6E
S31502003F40F3F3A1FB02C434B9BCFBF3F080B15DF814
S31502003F50044BFFF7CDBFB1FBF3F1A1FB0212002A1E
S31502003F60F5D1084620B1F2E71846002BDFD170479B
S31502003F705DF8044B704700BF786B002200127A008E
S31502003F8000CA9A3BF8B5002401260D4B0D4FD3F813
S31502003F900021D3F82051154006FA04F32B4204D02F
S31502003FA057F82430E0B203B198470134152CF3D107
S31502003FB0034AC2F81051D2F820312B42FBD1F8BD88
S31502003FC000C00040906A00220022202310B4074855
S31502003FD0074C30F8021F02F5C65C013209B144F8FB
S31502003FE02C10013BF5D15DF8044B704726190102EE
S31502003FF000600040EFF31081012383F31088124B17
S3150200400033F8102092B22AB133F81020013A92B254
S3150200401023F8102033F810309BB293B910B40B4A30
S315020040200B4CB2F8FA3334F810009BB243F4254332
S3150200403023EA0003A2F8FA3381F310885DF8044BF1
S31502004040704781F310887047686B002200E00140D8
S31502004050A41C010230B4EFF31081012383F310880C
S315020040600E4A32F810309BB26BB90D4C0D4DB4F8B6
S31502004070FA3335F810C09BB243EA0C0343F42543E6
S315020040809BB2A4F8FA3332F8103001339BB222F80D
S31502004090103081F3108830BC704700BF686B002275
S315020040A000E00140A41C010208B509490A68831808
S315020040B0B3F5005F03D807480B60104408BD08F04B
S315020040C085FF0C2203461A604FF0FF3008BD00BF81
S315020040D0746B002240030022F8B50646304C94F871
S315020040E0503C03F0FF05002BF9D187221023A4F8D8
S315020040F0242C84F8003C002E3FD1012200232849BB
S3150200410081F8022C81F8013C91F8503C002BFBD13E
S31502004110D6B14FF40C73224AA1F8483C92F8503CAF
S31502004120D807C3F30001F9D447F20804012011238A
S315020041301C4DC2F8445C82F8401CA2F8144C82F86A
S31502004140160C82F8003CF8BD47F208000123154C14
S31502004150134AC1F8444C81F8406CA1F8140C81F85A
S31502004160163C92F8003CDB07FBD492F8503C002B3D
S31502004170F7D1012382F8103CF8BD01272846FFF744
S3150200418069FF094B284683F85370FFF733FF044A49
S3150200419084F8207C92F8503C1C07FBD4ADE700BFA4
S315020041A0003000400325050000E0014000BE7047D4
S315020041B008B500F035F8FCF77BFEFEE7F8B5174FB9
S315020041C005463E68A6B17C6806EB460604EB860603
S315020041D002E00C34B4420BD0637AAB42F9D1D4E993
S315020041E000020021121A0C3408F074FEB442F3D114
S315020041F0BE6896B1FC6804EB061602E01034A642CD
S315020042000BD0637BAB42F9D1D4E90002A168121A42
S31502004210103408F0F2FEA642F3D1F8BD741A010278
S31502004220F8B5844A844B5A61BFF34F8FBFF36F8F41
S315020042301B6803F47002B2F5801F00F0D48013F4F9
S31502004240600F00F0BC807D4A136823F004031360FC
S31502004250BFF34F8FBFF36F8F4FF47002784B764CDC
S315020042600020C4F88820A360FCF710FE0025FFF7A3
S315020042708BFC4AF202514FF42542724B0120A3F8FD
S31502004280FA1383F8B05AA3F8FA23FCF7FFFD6E4B34
S3150200429083F30A88694B1A68910704D5A268B2F1BA
S315020042A0007F00F0A4800020FFF788FFFFF726FCBE
S315020042B0FFF7C2FD0320FFF7CDFE00234FF00E0EDF
S315020042C01C464EF001E0614903F10C0221F822403E
S315020042D001330FF007C80320FFF78CFE0320FFF718
S315020042E0B9FE5B4B03205C609C60DC601C61554C34
S315020042F0FFF780FED4F8D8339A0747D5D4F8D833D7
S31502004300504CD4F8D8335B0727D5D4F8D8330220DB
S31502004310FCF7BCFD0120FFF751FFBFF34F8FBFF340
S315020043206F8F0024444BC3F85042BFF34F8FBFF345
S315020043306F8F484B484D5B1BA3424FEAA30605DD30
S3150200434055F8043B01349847A642F9DCFFF73CFED8
S31502004350BDE8F8400020FFF7C7BD94F81431002BE2
S31502004360D5D00120FFF776FE94F8143103F0C0038E
S31502004370802BF9D10023334A84F8143192F8143190
S315020043803F2BFBD80120FFF735FEC0E794F810312A
S31502004390002BB5D00120FFF75DFE94F8103103F033
S315020043A0C003802BF9D10023264A84F8103192F8F3
S315020043B010313F2BFBD80120FFF71CFEA0E71F4A56
S315020043C0136843F004031360BFF34F8FBFF36F8F7D
S315020043D04FF0E022936843F480339360BFF34F8F2C
S315020043E0BFF36F8F38E718077FF42DAF27E7012158
S315020043F01A695869C2F3C302093201FA02F30026A6
S315020044000027DB0843F005C0E5E802670FF005C0A8
S31502004410C0F3C303093301FA03F34FF00052DB087A
S3150200442043F007C0AFF30080E2E802670FF005C071
S3150200443039E700BF01020E0000ED00E000E001E0F6
S315020044400000000200E0014040230022000D40402F
S3150200445000402040C4400A02C0400A024FF0000C4D
S31502004460F0B5234F234BFA781E6883B09D688DF80A
S315020044700720214C01223046AB680DF1070184F872
S3150200448000C098472378002BFCD04FF0000C7B88A5
S3150200449001228DF807303046AB680DF1070184F82A
S315020044A000C098472378002BFCD04FF0000C3B68E5
S315020044B001221B0A8DF807303046AB680DF1070161
S315020044C084F800C098472378002BFCD04FF0000CEC
S315020044D03B6830468DF807300122AB680DF10701C3
S315020044E084F800C098472378002BFCD003B0F0BDB7
S315020044F0B0000022E0130102956B0022184A1378DD
S31502004500B3FA83F35B0913700379022B1BD0042BD6
S3150200451002D0012B1BD07047124AB2F90010138841
S3150200452000290FDBB3F5C87F816813D230B4642447
S315020045300D4D0E4803F1010CA2F800C0E9540460C7
S3150200454030BC704770470122094B1A707047094AFE
S31502004550137070476FEA43436FEA53431380704701
S31502004560966B0022906D0022006C0022906B002256
S31502004570956B0022946B0022084B1A6862B11A6886
S31502004580013A1A601B683BB9054A138823B16FEAE0
S3150200459043436FEA53431380704700BF906B002278
S315020045A0906D002270B54FF0EF0E4FF0000C4C4BA1
S315020045B082B01E689D684B4C8DF800E00122694668
S315020045C03046AB6884F800C098472378002BFCD0AD
S315020045D0012200238DF80020237069463046AB681D
S315020045E098472378002BFCD0FFF738FF01220023DF
S315020045F08DF80020237069463046AB6898472378C9
S31502004600002BFCD000238DF800302370012269466E
S315020046103046AB6898472378002BFCD04FF0030C4A
S3150200462000238DF800C02370012269463046AB682C
S3150200463098472378002BFCD0012200238DF8002016
S31502004640237069463046AB6898472378002BFCD026
S3150200465000238DF800302370012269463046AB688C
S3150200466098472378002BFCD04FF0050C00238DF8D9
S3150200467000C02370304601226946AB68984723780A
S31502004680002BFCD040F2EF104FF007010022164B30
S31502004690164D1B6840F2CF741BBA154ECDF8023088
S315020046A0ADF80000ADF806102A8002E0013CA4B283
S315020046B09CB14FF47A710120FFF720FCB5F9003066
S315020046C0002BF3DA0023694630462B8008F01DFCE6
S315020046D00028EBD0407A02B070BDFF2002B070BD58
S315020046E0E0130102956B0022B0000022906D0022B9
S315020046F0006C00222DE9F0414FF0EF0E4FF0000C56
S31502004700554B82B01E689D68544C8DF800E00746F2
S31502004710012269463046AB6884F800C09847237880
S31502004720002BFCD0012200238DF80020237069465D
S315020047303046AB6898472378002BFCD0FFF78EFEF5
S31502004740012200238DF80020237069463046AB68AB
S3150200475098472378002BFCD000238DF80030237075
S31502004760012269463046AB6898472378002BFCD075
S31502004770042300228DF80030227069460122304659
S31502004780AB6898472378002BFCD0022300228DF8D1
S3150200479000302270694601223046AB68984723787A
S315020047A0002BFCD04FF0000C8DF8007001226946F8
S315020047B03046AB6884F800C098472378002BFCD0BB
S315020047C007F1070847463F0A8DF8007000270122C5
S315020047D069463046AB68277098472378002BFCD091
S315020047E000278DF80080304601226946AB682770A3
S315020047F098472378002BFCD040F2EF104FF00701C8
S315020048000022174B174D1B6840F2CF741BBA164E87
S31502004810CDF80230ADF80000ADF806102A8002E0AD
S31502004820013CA4B2A4B14FF47A710120FFF766FBF2
S31502004830B5F90030002BF3DA0023694630462B80A7
S3150200484008F063FB0028EBD0407A02B0BDE8F081A5
S31502004850FF2002B0BDE8F081E0130102956B002251
S31502004860B0000022906D0022006C002270B54FF05D
S31502004870EF0E4FF0000C4D4B82B01E689D684C4CFB
S315020048808DF800E0012269463046AB6884F800C024
S3150200489098472378002BFCD0012200238DF80020B4
S315020048A0237069463046AB6898472378002BFCD0C4
S315020048B0FFF7D4FD012200238DF8002023706946FC
S315020048C03046AB6898472378002BFCD000238DF83E
S315020048D000302370012269463046AB689847237838
S315020048E0002BFCD04FF0030C00238DF800C0237080
S315020048F0012269463046AB6898472378002BFCD0E4
S315020049004FF0030C00238DF800C023700122694684
S315020049103046AB6898472378002BFCD000238DF8ED
S3150200492000302370012269463046AB6898472378E7
S31502004930002BFCD04FF0070C00238DF800C023702B
S31502004940304601226946AB6898472378002BFCD093
S3150200495040F2EF104FF007010022164B164D1B686E
S3150200496040F2CF741BBA154ECDF80230ADF80000F6
S31502004970ADF806102A8002E0013CA4B29CB14FF4C5
S315020049807A710120FFF7BAFAB5F90030002BF3DA93
S315020049900023694630462B8008F0B7FA0028EBD090
S315020049A0407A02B070BDFF2002B070BDE013010272
S315020049B0956B0022B0000022906D0022006C00224E
S315020049C070B54FF0EF0E4FF0000C4D4B82B01E68E3
S315020049D09D684C4C8DF800E0012269463046AB6872
S315020049E084F800C098472378002BFCD001220023CC
S315020049F08DF80020237069463046AB6898472378C5
S31502004A00002BFCD0FFF72AFD012200238DF800209F
S31502004A10237069463046AB6898472378002BFCD052
S31502004A2000238DF800302370012269463046AB68B8
S31502004A3098472378002BFCD04FF0030C00238DF807
S31502004A4000C02370012269463046AB689847237836
S31502004A50002BFCD04FF0050C00238DF800C023700C
S31502004A60012269463046AB6898472378002BFCD072
S31502004A7000238DF800302370012269463046AB6868
S31502004A8098472378002BFCD04FF0090C00238DF8B1
S31502004A9000C02370304601226946AB6898472378E6
S31502004AA0002BFCD040F2EF104FF007010022164B0C
S31502004AB0164D1B6840F2CF741BBA154ECDF8023064
S31502004AC0ADF80000ADF806102A8002E0013CA4B25F
S31502004AD09CB14FF47A710120FFF710FAB5F9003054
S31502004AE0002BF3DA0023694630462B8008F00DFAD4
S31502004AF00028EBD0407A02B070BDFF2002B070BD34
S31502004B00E0130102956B0022B0000022906D002294
S31502004B10006C00222DE9F0434FF0EF0884464FF077
S31502004B20000E634B83B01E689D688DF80080614C51
S31502004B300F46012269463046AB68E04684F800E03B
S31502004B4098472378002BFCD0012200238DF8002001
S31502004B50237069463046AB6898472378002BFCD011
S31502004B60FFF77CFC012200238DF8002023706946A2
S31502004B703046AB6898472378002BFCD000238DF88B
S31502004B8000302370012269463046AB689847237885
S31502004B90002BFCD006238DF800300023012223705F
S31502004BA069463046AB6898472378002BFCD006232B
S31502004BB08DF8003000230122237069463046AB6827
S31502004BC098472378002BFCD000238DF800802370B1
S31502004BD0012269463046AB6898472378002BFCD001
S31502004BE000234FEA17298DF80090237001226946A7
S31502004BF03046AB6898472378002BFCD000238DF80B
S31502004C0000702370012269463046AB6898472378C4
S31502004C10002BFCD059FA87F70D37B84400274FEA24
S31502004C2018238DF80030012269463046AB6827709A
S31502004C3098472378002BFCD000278DF80080304659
S31502004C4001226946AB68277098472378002BFCD06F
S31502004C5040F2EF104FF007010022174B174D1B6869
S31502004C6040F2CF741BBA164ECDF80230ADF80000F2
S31502004C70ADF806102A8002E0013CA4B2A4B14FF4BA
S31502004C807A710120FFF73AF9B5F90030002BF3DA11
S31502004C900023694630462B8008F037F90028EBD00E
S31502004CA0407A03B0BDE8F083FF2003B0BDE8F0838D
S31502004CB0E0130102956B0022B0000022906D0022E3
S31502004CC0006C00222DE9F0474FF0EF0884464FF0C2
S31502004CD0000E6B4B82B01E689D688DF80080694C91
S31502004CE00F46012269463046AB68E04684F800E08A
S31502004CF098472378002BFCD0012200238DF8002050
S31502004D00237069463046AB6898472378002BFCD05F
S31502004D10FFF7A4FB012200238DF8002023706946C9
S31502004D203046AB6898472378002BFCD000238DF8D9
S31502004D3000302370012269463046AB6898472378D3
S31502004D40002BFCD007238DF80030002301222370AC
S31502004D5069463046AB6898472378002BFCD00C2373
S31502004D608DF8003000230122237069463046AB6875
S31502004D7098472378002BFCD000234FEA182A8DF897
S31502004D8000A02370012269463046AB689847237813
S31502004D90002BFCD000238DF8008023700122694687
S31502004DA03046AB6898472378002BFCD000234FEAA5
S31502004DB017298DF800902370012269463046AB68A8
S31502004DC098472378002BFCD000238DF800702370BF
S31502004DD0012269463046AB6898472378002BFCD0FF
S31502004DE059FA87F71437BA4400275AFA88F84FEA6D
S31502004DF018238DF80030012269463046AB682770C9
S31502004E0098472378002BFCD000278DF80080304687
S31502004E1001226946AB68277098472378002BFCD09D
S31502004E2040F2EF104FF007010022174B174D1B6897
S31502004E3040F2CF741BBA164ECDF80230ADF8000020
S31502004E40ADF806102A8002E0013CA4B2A4B14FF4E8
S31502004E507A710120FFF752F8B5F90030002BF3DA28
S31502004E600023694630462B8008F04FF80028EBD025
S31502004E70407A02B0BDE8F087FF2002B0BDE8F087B5
S31502004E80E0130102956B0022B0000022906D002211
S31502004E90006C002270B54FF0EF0E4FF0000C4D4B38
S31502004EA082B01E689D684C4C8DF800E0012269466E
S31502004EB03046AB6884F800C098472378002BFCD0B4
S31502004EC0012200238DF80020237069463046AB6824
S31502004ED098472378002BFCD0FFF7C0FA0122002363
S31502004EE08DF80020237069463046AB6898472378D0
S31502004EF0002BFCD000238DF8003023700122694676
S31502004F003046AB6898472378002BFCD04FF0030C51
S31502004F1000238DF800C02370012269463046AB6833
S31502004F2098472378002BFCD04FF00D0C00238DF808
S31502004F3000C02370012269463046AB689847237841
S31502004F40002BFCD000238DF8003023700122694625
S31502004F503046AB6898472378002BFCD04FF0110CF3
S31502004F6000238DF800C02370304601226946AB68E3
S31502004F7098472378002BFCD040F2EF104FF0070140
S31502004F800022164B164D1B6840F2CF741BBA154E03
S31502004F90CDF80230ADF80000ADF806102A8002E026
S31502004FA0013CA4B29CB14FF47A710120FEF7A6FF30
S31502004FB0B5F90030002BF3DA0023694630462B8020
S31502004FC007F0A3FF0028EBD0407A02B070BDFF20A5
S31502004FD002B070BDE0130102956B0022B000002200
S31502004FE0906D0022006C0022F0B54FF0EF0E4FF0EC
S31502004FF0000C544B83B01F689D68534C8DF800E03B
S315020050000646012269463846AB6884F800C09847CE
S315020050102378002BFCD0012200238DF80020237078
S3150200502069463846AB6898472378002BFCD0FFF7D1
S3150200503015FA012200238DF80020237069463846AE
S31502005040AB6898472378002BFCD000238DF80030FC
S315020050502370012269463846AB6898472378002BAD
S31502005060FCD0032300228DF800302270694601220B
S315020050703846AB6898472378002BFCD00F230022D2
S315020050808DF800302270694601223846AB6898478F
S315020050902378002BFCD000238DF8003023700122E8
S315020050A069463846AB6898472378002BFCD0132311
S315020050B000228DF800302270384601226946AB681C
S315020050C098472378002BFCD040F2EF114FF00702ED
S315020050D000201E4B1E4D1B6840F2E7341BBA1D4FC3
S315020050E0CDF802302880ADF80010ADF8062002E0B7
S315020050F0013CA4B20CB34FF47A710120FEF7FEFE16
S31502005100B5F90030002BF3DA0023694638462B80C6
S3150200511007F0FBFE0028EBD0C389427A5BBA3380E4
S31502005120437CB370D0F812301BBA7360C37D3372FE
S31502005130437E1046737203B0F0BDFF22104603B0E1
S31502005140F0BD00BFE0130102956B0022B000002201
S31502005150906D0022006C00222DE9F04FEF2500260B
S3150200516085B0764C0193764B8DF8085026709D6873
S315020051701E6883468846174630460122AB6802A956
S3150200518098472378002BFCD0012200238DF80820B3
S3150200519023703046AB6802A998472378002BFCD0CF
S315020051A0FFF75CF9012200238DF8082023703046B0
S315020051B0AB6802A998472378002BFCD000238DF810
S315020051C00830237001223046AB6802A9984723783B
S315020051D0002BFCD008238DF808300023012223700F
S315020051E03046AB6802A998472378002BFCD01B23D4
S315020051F08DF808300023012223703046AB6802A9DD
S3150200520098472378002BFCD000238DF808B0237032
S3150200521001223046AB6802A998472378002BFCD0BE
S3150200522000234FEA182A8DF808A02370012230467F
S31502005230AB6802A998472378002BFCD000238DF88F
S315020052400880237001223046AB6802A9984723786A
S31502005250002BFCD000234FEA17298DF80890237003
S3150200526001223046AB6802A998472378002BFCD06E
S3150200527000238DF80870237001223046AB6802A91C
S3150200528098472378002BFCD0002359FA87F7243756
S31502005290BA445AFA88F8C34423704FEA1B238DF89E
S315020052A0083001223046AB6802A998472378002BC2
S315020052B0FCD000278DF808B030460122AB6802A95F
S315020052C0277098472378002BFCD040F2EF114FF05D
S315020052D0070200201B4B1C4D1B6840F2CF741BBA01
S315020052E01A4ECDF80A302880ADF80810ADF80E2017
S315020052F002E0013CA4B2E4B14FF47A710120FEF758
S31502005300FDFDB5F90030002BF3DA0023304602A981
S315020053102B8007F0FAFD0028EBD043890199427AE7
S315020053205BBA0B80838910465BBA4B8005B0BDE839
S31502005330F08FFF22104605B0BDE8F08F956B002274
S31502005340E0130102B0000022906D0022006C0022E0
S31502005350F0B54FF0EF0E4FF0000C4D4B83B01F68C7
S315020053609D684C4C8DF800E0064601226946384697
S31502005370AB6884F800C098472378002BFCD0012242
S3150200538000238DF80020237069463846AB6898479B
S315020053902378002BFCD0FFF761F8012200238DF859
S315020053A00020237069463846AB6898472378002B5D
S315020053B0FCD000238DF8003023700122694638465E
S315020053C0AB6898472378002BFCD0032300228DF884
S315020053D000302270694601223846AB689847237826
S315020053E0002BFCD01D2300228DF800302270694666
S315020053F001223846AB6898472378002BFCD000235D
S315020054008DF800302370012269463846AB6898470A
S315020054102378002BFCD0212300228DF80030227045
S31502005420384601226946AB6898472378002BFCD0A0
S3150200543040F2EF114FF007020020174B174D1B6881
S31502005440C7241BBA164FCDF802302880ADF80010DB
S31502005450ADF8062002E0013CA4B2B4B14FF47A7171
S315020054600120FEF74BFDB5F90030002BF3DA0023DD
S31502005470694638462B8007F048FD0028EBD0438961
S31502005480407A5BBA338003B0F0BDFF2003B0F0BDB3
S31502005490E0130102956B0022B0000022906D0022FB
S315020054A0006C002210B50A4C88B02046FFF750FF68
S315020054B0247808492246684607F0BEFB684605F08E
S315020054C05DF92146044807F047FB08B010BD00BF4E
S315020054D0806B00227403010284030102F0B54FF0CF
S315020054E0EF0E4FF0000C524B83B01F689E68514C72
S315020054F08DF800E00546012269463846B36884F80D
