S013000052413850315F54455354312E73726563F5
S315020000008062002211340002E53100020D34000242
S315020000100D3400020D3400020D3400020D340002CC
S315020000200000000000000000000000000D34000285
S315020000300D340002000000000D3400020D340002EF
S31502000040091400026113000299140002E514000269
S31502000050F92C0002891900021D1B0002411C000234
S31502000060251D000209140002611300029914000200
S31502000070E5140002891900021D1B0002411C000240
S31502000080251D0002091400026113000299140002E0
S31502000090E514000209140002611300029914000219
S315020000A0E514000209140002611300029914000209
S315020000B0E51400023D280002190D0002610D00023E
S315020000C001000000104000000000000000000000D7
S315020000D0000008A000000000000000000000000070
S315020000E0FFFFFFFFFFFFFFFF00000000030000000D
S315020000F050BF0022B80000220000000050BF0022BC
S31502000100B8BF002220C0002200000000000000004C
S3150200011000000000000000000000000000000000D7
S3150200012000000000000000000000000000000000C7
S3150200013000000000000000000000000000000000B7
S315020001400000000043000000000000000000000064
S315020001500000000000000000000000000000000097
S315020001600000000043000000000000000000000044
S315020001700000000000000000000000000000000077
S315020001800000000043000000000000000000000024
S315020001900000000000000000000000000000000057
S315020001A00000000043000000000000000000000004
S315020001B00000000000000000000000000000000037
S315020001C000000000430000000000000000000000E4
S315020001D00000000000000000000000000000000017
S315020001E000000000430000000000000000000000C4
S315020001F000000000000000000000000000000000F7
S3150200020000000000430000000000000000000000A3
S3150200021000000000000000000000000000000000D6
S3150200022000000000296600020566000200000000C8
S31502000230884801028547010271470102714701029E
S3150200024071470102714701027147010271470102BA
S31502000250714701027147010271470102FFFFFFFF69
S31502000260FFFFFFFFFFFFFFFFFFFF000001004153FB
S3150200027043494900000000000000000000000000A1
S3150200028000000000000000000000000000004153D2
S315020002904349490000000000000000000000000081
S315020002A00000000000000000000000000000000046
S315020002B00348044B834202D0034B03B118477047ED
S315020002C0700200227002002200000000064B07495D
S315020002D0C91A891048BF0131491003D0044B0BB12A
S315020002E001481847704700BF7002002270020022C0
S315020002F00000000010B5064C237843B9FFF7D8FF7B
S31502000300044B13B10448AFF300800123237010BDE0
S31502000310C06200220000000028F1C90208B5054BA0
S315020003201BB105490548AFF30080BDE80840FFF759
S31502000330CDBF00BF00000000C462002228F1C9023E
S31502000340037903B1704703F0B9B900BF28B1037945
S31502000350022B02D10122014B1A7070478000002243
S3150200036070B5151E10DD91B10A4B4FF0000C98685E
S31502000370094C06461868B36884F800C09847237883
S31502000380002BFCD0284670BD0025284670BD0D46C0
S31502000390284670BD98730002800000222DE9F04FB6
S315020003A0994B8DB09E681F685968326838469047E7
S315020003B0964B1D689C685968226828469047636870
S315020003C02846984703F0C6F9804620B10146904870
S315020003D004F006FAFEE703F097FA03F099FC8D485B
S315020003E004F06EFA8C4804F06BFA8C4804F068FA52
S315020003F08B4804F065FA8B4804F062FA8A4804F0E6
S315020004005FFA8A4804F05CFA894D8A488A4C04F0FD
S3150200041057FACDF82480079603F01CFA90B14FF4F0
S31502000420007103F091FA099B844A0133099302FB96
S3150200043003F3B3F1333F40F2E38003F059FC0028A3
S3150200044040F0D480079B012238465B680BA9984787
S3150200045030B99DF82C30722B02D10123784A1370E1
S31502000460774B1E461B78002B00F08F80002302225A
S3150200047044F236117348337004F0B2F9079E03F062
S31502000480E9F90028FBD1824680468146DFF8E4B1CD
S315020004900796089703F0DEF9074650B344F2361A78
S315020004A0B9F1010F40F38780AAEB0806B6F5007F83
S315020004B028BF4FF4007605EB48007200394604F077
S315020004C062FB614BB04403FB08F3604AB2EB730F65
S315020004D061D244F23513984567D803F0BBF9074653
S315020004E00028DDD103F0B6F94FF0010A07460028CD
S315020004F0D4D1574B0AF1010A9A45CBD14146554808
S31502000500089F04F06DF944F23611534B53480A938F
S315020005100B9104F065F90021079E217004223846EA
S31502000520B3680AA998472378002BFCD04FF0000C39
S3150200053004223846B3680BA984F800C0984723788A
S31502000540002BFCD04FF0000B48F26C2A48F26B29C4
S31502000550AAEB0B08B8F5007F4FF0000328BF4FF453
S315020005600078237038464246B36805EB0B0198477C
S315020005702378002BFCD0C344CB45E9D938480796EB
S3150200058004F09EF9374804F09BF94FF47A710A2079
S3150200059002F0E4FD40E744F236124146584604F0C2
S315020005A01FF944F23513984597D941462E48089FBC
S315020005B004F016F9A7E7B7F90E00B7F90430B7F950
S315020005C00220B7F900100490B7F90C0009F10109ED
S315020005D00390B7F90A000290B7F908000190B7F93B
S315020005E006602248009604F0FBF85DE703F086FBFE
S315020005F080461F4804F064F9404603F095FB21E764
S315020006002E2004F0FFF818E798730002D873000250
S315020006102870000240700002607000028C700002B6
S31502000620AC700002C8700002007100022071000264
S31502000630000000684C71000280000022CDCCCCCCB8
S31502000640DC620022647100021B662014C46A1F0069
S31502000650C02709001872000255AA55AAC8710002DD
S31502000660E0710002E87100024C7200028C71000215
S3150200067060710002B8710002022800D0704708B506
S315020006800449054801F03CF8BDE80840012002F0A3
S3150200069053BE00BF34750002E062002208B5FFF7C0
S315020006A07DFE002008BD00BF03469B6800201A6835
S315020006B061F3C3021A60704703469B6800205B68B9
S315020006C0C3F340630B70704784460020CCE90932BD
S315020006D0CCF82010704700BF10B582680446136834
S315020006E023F0705323F0030343F000731360826810
S315020006F0136923F00C0313614368DA6822B1936825
S3150200070010681B69984763689A6822B193681068F3
S315020007101B69984763680022DB79A168DB070B61D6
S31502000720C4E90322C4E9052210BD00BF08B5FFF7DC
S31502000730D3FF002008BD00BF30B483681D6805F0F2
S31502000740030231EA02041FD00ABB5A6892011ED57F
S315020007501A6942F003041C6183681A61846823697A
S315020007609342FCD18B0745EA010544BF45F000558B
S3150200077042F00802CB0748BF42F0040222618368B6
S3150200078048BF45F080651D60002030BC70470820D8
S3150200079030BC704730B5816883694C69057FC4F304
S315020007A005249C4228BF1C46022D426938D0012DE1
S315020007B01CD065BBB4B1234600E08168097F013BCA
S315020007C002F8011BF9D1D0E90532017F121B04FAA6
S315020007D001F10B44C0E905324FF48032836859694E
S315020007E05A61836903B14369436130BD002C3AD033
S315020007F06300023B5B08013300E08168898B013BA1
S3150200080022F8021BF9D1057F426945B3836904FACE
S3150200081005F51B1B2A44C0E90523002CE2D0DBE7C1
S315020008200CB31346C969012C43F8041B11D002EB21
S315020008308402A2EB030EAEF1040E4FEA9E0E0EF1F7
S31502000840010E4EF001E08268D26943F8042B0FF0E4
S3150200085007C0057F4269012D03D0002DD6D18168DC
S31502000860A9E78168C4E7AC402244C0E90523B9E799
S3150200087030B5436A83B004460A466D468BB193E8A7
S31502000880030085E803001A71A26A18461A60236AF1
S315020008909847636A1BB195E8030083E8030003B037
S315020008A030BD2B46EFE700BF38B500230121826831
S315020008B00360136082682D4D13614368044693F901
S315020008C021305A0903F01F0301FA03F3203245F8D7
S315020008D02230BFF34F8FBFF36F8F436893F9202007
S315020008E0002A0BDB530902F01F029140203345F820
S315020008F02310BFF34F8FBFF36F8F436893F91F2007
S31502000900002A0EDB01211948530902F01F02203387
S3150200091001FA02F240F82320BFF34F8FBFF36F8F25
S315020009206368DA6822B1936810681B6A984763683D
S315020009309B681BB19A681868136A9847EFF310858B
S31502000940012181F310886368094A1B689068C3F124
S31502000950080301FA03F30343936093681E2002F02F
S31502000960FDFB85F31088002038BD00BF00E100E0E2
S31502000970003020402DE9F041934F0A6891F8048037
S3150200098017440C46054646463F02B8F1000F08D00A
S31502000990B8F1010F1ABF4FF000564FF002084FF0A0
S315020009A08056A368ABB102225B6807F118011B6887
S315020009B09960A36846F008415B681B681960A368E2
S315020009C05B681B68DA81A3689A68D3E9000112683A
S315020009D09047E368BBB102225B6807F11C011B6802
S315020009E046F000465960E36846F4C0165B681B6829
S315020009F01E60E3685B681B68DA81E3689A68D3E97C
S31502000A00000112689047C5E9014785F81C8094F9F0
S31502000A102130A27F002BC0F2BE80120103F1604199
S31502000A20D2B201F5614181F800236848684A40F86C
S31502000A30235003F5C65152F8216026F4803642F857
S31502000A40216052F82110BFF35F8F012603F01F01C8
S31502000A505B099B0003F1604303F5614306FA01F16A
S31502000A60C3F88011196094F92030002B22DB217F14
S31502000A7003F160470901C9B207F5614787F8001318
S31502000A8040F8235003F5C65152F8217027F48037F7
S31502000A9042F8217052F82120BFF35F8F03F01F0244
S31502000AA05B099B0003F16043964003F56143C3F87B
S31502000AB080611E6094F91F30002B25DB627F03F1F3
S31502000AC060411201D2B201F5614181F80023404A28
S31502000AD040F8235003F5C65152F8210020F4803025
S31502000AE042F8210052F82120BFF35F8F01215A09F3
S31502000AF0920003F01F0302F1604202F5614201FA1D
S31502000B0003F3C2F8803113606779E27923793F04EF
S31502000B1047EA823747EAC347023B032B47F400738F
S31502000B2098BF1F46012A4FEAC2763CD04FF0000812
S31502000B3023692B6200236269C5E90932EFF3108447
S31502000B40012181F310886B68224A1B689068C3F101
S31502000B50080301FA03F320EA0303936093681E2055
S31502000B6002F0FCFA84F31088AA6846F48033176010
S31502000B70AA681361AB681E61AA681369B342FCD105
S31502000B8040F601715162144BAA680020C2F8208017
S31502000B902B60BDE8F081114903F00F001201D2B2B9
S31502000BA001440A7641E794F80680A369B8FA88F800
S31502000BB05A781B784FEA58189B0743EA02131F43D9
S31502000BC04FEA0828B4E700BFD0254000F0630022B0
S31502000BD0006000400030204049535300FCEC00E026
S31502000BE070B54568037FAD68044622FA03F3BDB1CA
S31502000BF0A868C3F34F03866800222868B0470346F5
S31502000C0060B9C4E90303A26853689B0005D4204671
S31502000C10BDE870400221FFF78FBD0D23184670BD57
S31502000C200846EEE7F8B5154643680E46DA68017FD0
S31502000C30044625FA01F33AB15B08013B10D10222C0
S31502000C40354413468A40AE1AC4E90563A26853685E
S31502000C505B010FD42046BDE8F8400121FFF76CBDC9
S31502000C60916810688F68324600219BB2B84710B966
S31502000C70217FE4E70C20F8BDF8B5154643680E4619
S31502000C80DA68017F044625FA01F382B15B08013B6B
S31502000C9008D0916810688F68324600219BB2B84727
S31502000CA040B9217F0222354413468A40AE1A0020FB
S31502000CB0C4E90563F8BD00BFF8B517464268047F6C
S31502000CC0926805461E4623FA04F40AB3C4F34F0398
S31502000CD094681068A4680022A0470446B0B9034687
S31502000CE0C5E90334324639462846FFF7C5FF0446AE
S31502000CF060B9AB685B689A000CD45B0105D42846E0
S31502000D00BDE8F8400321FFF717BD0C242046F8BDC5
S31502000D100B46E5E70D24F9E710B5EFF30383103B25
S31502000D200D4A5BB203F5C65152F821400B4824F432
S31502000D30803450F8230042F8214052F821304369AA
S31502000D4023B1FFF727FD836903B110BD0221BDE878
S31502000D501040FFF78DBD00BF00600040F063002227
S31502000D6010B5EFF303830021114A103B5CB252F82F
S31502000D70240083685A685960930111D443690BB100
S31502000D80FFF708FDFFF7A8FC0A4A04F5C65352F816
S31502000D90231021F4803142F8231052F8233010BD7B
S31502000DA083681A6861F359621A60FFF761FDEBE71F
S31502000DB0F06300220060004003460020C3E90612E9
S31502000DC0704700BF844610B4406A836823F4401318
S31502000DD08360DCF82440A36C5800FCD5A36823F09A
S31502000DE01003A360DCF82440237FC3F30010DB0664
S31502000DF0FAD4CCE90412A36843F01013A3605DF899
S31502000E00044B704784460020CCE90B32CCF82810FC
S31502000E10704700BF4FF0FF330020C1E9003370472F
S31502000E208B0784461DD5426A936823F44013936068
S31502000E30426A936C5800FCD5936823F010039360C2
S31502000E40DCF82400037FC3F30012DB06FAD4104653
S31502000E50CCF81420CB0703D500231846CCF81C3057
S31502000E6070470620F6E700BF0346002210B4DC698D
S31502000E7010460C60DA615DF8044B70470620704735
S31502000E8030B40124164D530902F01F0C203304FA24
S31502000E900CF445F82340BFF34F8FBFF36F8F114B0E
S31502000EA002F5C65C53F82C4024F4803443F82C40F7
S31502000EB053F82C300901002AC9B207DB0A4B154444
S31502000EC085F8001343F8220030BC7047074B02F046
S31502000ED00F0423441976044B43F8220030BC7047B2
S31502000EE000E100E000600040F0630022FCEC00E05C
S31502000EF0F0B5C46A85B005460F4694466E46B4B14F
S31502000F0094E80F0086E80F002B6A20461B78A7603C
S31502000F10236084F804C02B6BE360AB6A9847EC6AE3
S31502000F201CB196E80F0084E80F0005B0F0BD344608
S31502000F30EAE700BFF8B5394B42689A426BD10446DC
S31502000F40426A936823F440139360426A936823F0DB
S31502000F5010039360426A137FC3F30015DB06FAD4CB
S31502000F600121236A2E4A93F90730580903F01F0319
S31502000F70203001FA03F342F82030BFF34F8FBFF35C
S31502000F806F8F236A93F90930580903F01F0301FA98
S31502000F9003F3203042F82030BFF34F8FBFF36F8F39
S31502000FA0606A836823F480338360236A93F9053089
S31502000FB0580903F01F0301FA03F3203042F82030E8
S31502000FC0BFF34F8FBFF36F8F236A93F90B30580924
S31502000FD003F01F0301FA03F3203042F82030BFF377
S31502000FE04F8FBFF36F8FEFF3108681F310884FF0A8
S31502000FF00043276A0B4A97F800C0506823FA0CF39D
S315020010000343536053681E2002F0A8F886F3108843
S3150200101065602846F8BD0720F8BD00BF4249435324
S3150200102000E100E000302040002370B5026AD56975
S3150200103083606B7C03B970BD184B044693F8543039
S3150200104003F00F03072B24D8DFE803F0040404217E
S315020010501F191B1D01269E40104B93F8550000F0E8
S315020010600F0002F013F8B0FBF6F00D4B1A686B7C1A
S3150200107002FB03F3B3FBF0F30133A36070BD032657
S31502001080EAE70526E8E70A26E6E70826E4E706266B
S31502001090E2E71026083B9E40DEE700BF00E0014083
S315020010A080640022F8B5002704460E46416A8D6820
S315020010B025F4441222F011028A600761FFF7B4FF99
S315020010C0636A326825F440151A61636A38469D6080
S315020010D0F8BD00BF0620704700222DE9F041012726
S315020010E00B78027003F5800303F556531B02436225
S315020010F001624B690D4683628B690446C0E90B2384
S315020011008378CE6967F3010383704B78934214BFE9
S315020011103A460222837862F30103837091F90B2027
S31502001120897AFFF7ADFE95F905202979FFF7A8FE22
S3150200113095F90720A979FFF7A3FE95F90920297ADF
S31502001140FFF79EFEEFF3108887F310884FF00041F9
S315020011502A787B4BD1405A6822EA01025A605B68C0
S315020011601E20394601F0FAFF88F310884FF4806298
S31502001170636A9A606B78E978EA691B02890301F46B
S31502001180804103F440730B4311785068090601F05D
S3150200119040710B435178C90389B20B43517B490510
S315020011A001F400110B43616A43F480534B611378D7
S315020011B0991EB94240F2BD800368616A0B61117BD8
S315020011C0AB7801F0030141F0300133B1022B14BFB9
S315020011D04FF440734FF480731943937800201B0732
S315020011E003F080530B43616ACB600123616A886115
S315020011F029788B40C3F3090313B1636A51495962D3
S315020012000025937BD17B127C01F01F0103F00103C1
S3150200121002F01F0243EA0123616A43EA02430B63B7
S315020012202046C4E90455C4E90655FFF7FDFE708958
S31502001230626A4549A0819166226A444B92F9052069
S3150200124002F5C65153F8210065F3104043F8210018
S3150200125053F82110BFF35F8F012102F01F005209DC
S31502001260920002F1604202F5614201FA00F0C2F810
S3150200127080011060226A92F90B2002F5C65053F8DB
S31502001280206065F3104643F8206053F82000BFF350
S315020012905F8F02F01F005209920002F1604201FACA
S315020012A000F002F56142C2F880011060226A92F9EA
S315020012B0072002F5C65053F8206065F3104643F83E
S315020012C0206053F82000BFF35F8F02F01F0052091F
S315020012D0920002F1604201FA00F002F56142C2F8A0
S315020012E080011060226A92F9092002F5C65053F86D
S315020012F0206065F3104643F8206053F82030BFF3B0
S315020013005F8F53099B0002F01F0203F16043914075
S3150200131003F56143C3F8801119600D4A636A9A6046
S31502001320626A137FDB07FCD50A4B00206360BDE8C7
S31502001330F0810949022B094B18BF0B463DE700BF56
S315020013400030204000001F1F1000079D0060004073
S31502001350110401004249435304FF00FF24FF00FF2A
S3150200136038B5EFF30383103B254A5BB203F5C6514A
S3150200137052F8210020F4803042F8210052F8212050
S31502001380204A52F82340236A1B69B3B1636903B149
S3150200139038BD636A9D68A06825F4801545F400157A
S315020013A018BB00219D60A36A2161002BF0D0204664
S315020013B0BDE838408022FFF79BBD6269636A002A56
S315020013C0E8D0A278216902F00302022A11D00A7833
S315020013D01A71A278D4E9041302F003029B1A11448B
S315020013E0C4E90413002BD3D1D3E701F0B1FE636A3B
S315020013F0D7E70A8822F4DC4292B25A60E9E700BFD4
S3150200140000600040F063002210B582B0EFF3038360
S31502001410103B1F4A5BB203F5C65152F8210020F475
S31502001420803042F8210052F821201A4A52F823400D
S31502001430A27802F00303022B636A0CBF19681978BB
S31502001440E3690CBFC1F30801C9B2019143B9A36AAA
S31502001450B3B10422204602B0BDE81040FFF748BDF2
S3150200146002F0030201A9A06903F08DFBD4E906216B
S31502001470A37803F003031A44C91AC4E9062109B181
S3150200148002B010BDA36A002BFAD00122E2E700BF28
S3150200149000600040F063002210B5EFF303830F4AA9
S315020014A0103B5CB252F82400426A936823F440135C
S315020014B023F010039360836A1BB102220021FFF717
S315020014C017FD074A04F5C65352F8231021F480315A
S315020014D042F8231052F8233010BD00BFF0630022F9
S315020014E00060004038B5EFF303831D4A103B5CB23F
S315020014F052F824008378456A03F00303022B0CBFDB
S3150200150029682978AA6C08BFC1F30801C2F30073DF
S31502001510C2F3006C4FEA031343EA4C13C2F3C062F0
S3150200152043EAC20C18BFC9B2DB06624604D5AB6CED
S315020015301B0458BF4CF04002AB6E43F0C853AB6677
S31502001540836A0BB1FFF7D4FC064A04F5C65352F878
S31502001550231021F4803142F8231052F8233038BD8B
S31502001560F0630022006000402DE9F84F0388DBB1EA
S315020015704FF0000A80464FF00109DFF8D4B000248C
S31502001580314D4FEACA07D8F8043035F8022BD9197B
S31502001590898891420AD00134032CF4D1B8F800307C
S315020015A00AF1010A5345EAD8BDE8F88FDB5909FA70
S315020015B004F603F0B853B3F1807F244BF6B293F8E6
S315020015C04C2C12D0324230D104F120021BF81230D8
S315020015D0DB09E0D01BF81230012123F08003C8207A
S315020015E00BF8123001F0BAFDD5E7324210D004F101
S315020015F020021BF81230DB09CDD11BF81230012173
S3150200160043F08003C8200BF8123001F0A7FDC2E7B1
S31502001610012001F04FFE0D4B012093F84C2C324372
S3150200162083F84C2C01F016FEE1E7012001F042FEA0
S31502001630064B012093F84C2C22EA060283F84C2C26
S3150200164001F008FEC0E700BF2879000200E0014071
S3150200165000202040F8B50646FFF786FFEFF310821A
S31502001660012383F31088234F3B681BB9402022498C
S315020016700B7508753B6801333B6082F3108833882B
S3150200168000211BB31D4D08E01B01134445F82340FE
S31502001690328801318BB29A4218D9736853F83140B5
S315020016A003EBC1029288E0034FEA1223D2B2EBD5D2
S315020016B002EB031055F820E024F4803C2EF4803E21
S315020016C045F820E01B0145F820C0DEE7EFF3108263
S315020016D0012383F310883B6813B13B68013B3B60EF
S315020016E03B681BB9802004490B75087582F3108884
S315020016F0F8BD00BFEC630022000D404000084040E8
S3150200170008B5034B03600846FFF7A4FF002008BD97
S3150200171054524F5030B5836B83B004460A466D4629
S31502001720A3B193E8030085E80300E16B1A7119601F
S315020017301846636B9847A36B1BB195E8030083E8D1
S315020017400300002384F82B3003B030BD2B46ECE7B0
S3150200175070B40024402203691C7003691A7002697E
S3150200176013785B06FCD5C0231370036802695B6AB3
S31502001770804D1B794FF0000C43F0E00313740368AD
S3150200178002695B6AB324DB7843F0E00353740368AF
S3150200179002695B6A9B781B0103F0700343F008033E
S315020017A09370036802695B6A1E78012E5E7814BF25
S315020017B00423052343EA4603DBB2D37003685B685E
S315020017C0AB4214BF7722F72203695A71036983F881
S315020017D006C00369DC7191F911204B7B6245C0F2A8
S315020017E0AA801B0102F16044DBB204F5614484F86D
S315020017F00033614C614B44F8220002F5C65553F89A
S31502001800256026F4803643F8256053F82530BFF369
S315020018105F8F012553099B0002F01F0203F160430B
S3150200182003F5614305FA02F2C3F880211A6091F9C1
S315020018300F204B7B002AC0F295801B0102F1604506
S31502001840DBB205F5614585F800334C4B44F82200BE
S3150200185002F5C65553F8256026F4803643F825600E
S3150200186053F82530BFF35F8F012553099B0002F021
S315020018701F0203F1604303F5614305FA02F2C3F85E
S3150200188080211A6091F910204B7B002A63DB1B0131
S3150200189002F16045DBB205F5614585F80033374B49
S315020018A044F8220002F5C65553F8256026F4803620
S315020018B043F8256053F82530BFF35F8F012553099E
S315020018C09B0002F01F0203F1604303F5614305FA30
S315020018D002F2C3F880211A6091F90E204B7B002A8E
S315020018E031DB1B0102F16041DBB201F5614181F896
S315020018F00033224B44F8220002F5C65153F8214028
S3150200190024F4803443F8214053F82130BFF35F8F2B
S31502001910012153099B0002F01F0203F1604303F504
S31502001920614301FA02F2C3F880211A609F22036919
S315020019301A7070BC7047124C02F00F051B01DBB225
S315020019402C44237655E70E4902F00F051B01DBB244
S3150200195029440B76CDE70B4D1B0102F00F06DBB2D5
S31502001960AB559CE7074D1B0102F00F06DBB2AB55E8
S315020019706BE700BF40420F00F063002200600040A8
S31502001980FCEC00E014ED00E010B582B0EFF3038347
S31502001990103B5F4A5BB203F5C65352F8231021F49B
S315020019A0803142F8231052F82330EFF30383594A69
S315020019B0103B5BB252F8234094F82D305BBBA3690F
S315020019C0022B22D9E369012B0ED12269137943F046
S315020019D0100313712269137943F008031371226904
S315020019E0137923F01003137123685B6ADB79002BEA
S315020019F03ED101222369DB7CDBB28DF807309DF8EC
S31502001A00073084F82D2002B010BD2269137943F005
S31502001A1040031371D6E7E369002BF4D02268526AB9
S31502001A20D279FAB9032B17D0022B26D0012B34D048
S31502001A302269236AD17C6269D154D4E90732013220
S31502001A40013BC4E90732002BDDD121690A7963F330
S31502001A5086120A7102B010BD2269137943F040035F
S31502001A601371E5E705212046FFF754FEE369D9E73E
S31502001A7005212046FFF74EFEBBE72269137943F0A4
S31502001A80100313712269137943F008031371226953
S31502001A90137923F010031371CAE794F82A2072B35C
S31502001AA022681D4892F90F20510902F01F0203FA1B
S31502001AB002F2203140F82120BFF34F8FBFF36F8F20
S31502001AC004202169CA7942F08002CA7121690A7921
S31502001AD042F010020A7121690A7922F008020A719B
S31502001AE021690A7922F010020A712269507021696D
S31502001AF04A7922F001024A7184F82C3098E70821CB
S31502001B002269537A03F0F7035372236959708FE7F8
S31502001B1000600040F063002200E100E010B5EFF340
S31502001B200383103B434A5BB203F5C65352F82310B4
S31502001B3021F4803142F8231052F82330EFF3038365
S31502001B403D4A103B5BB252F8234094F82730002BF3
S31502001B5040D194F82930002B3BD123685B6ADB79AC
S31502001B602BB194F82B3013B9236A002B5CD1E369AD
S31502001B702169002B41D1CB79C02223F08003CB719E
S31502001B80216901E0013A02D0CB79DB09FAD1236857
S31502001B90284A93F9103003F5C65352F8231021F45C
S31502001BA0803142F8231052F82330236893F910301B
S31502001BB0002B09DB01215A09204803F01F0360327A
S31502001BC001FA03F340F822302269D37943F0400345
S31502001BD0D37110BD94F82630032B1CD094F8242020
S31502001BE023699A7494F8282094F827300132013B2D
S31502001BF084F8282084F8273010BD236A6269D35CF2
S31502001C008B74D4E907320132013BC4E90732002B57
S31502001C10DFD12169AFE794F82830022BDED194F8A0
S31502001C203030002BDAD110BD05212046FFF772FDB8
S31502001C309DE700BF00600040F063002200E100E083
S31502001C4038B5EFF30383344A103B5BB252F82340B4
S31502001C5023685B6ADB79002B4BD194F829301BB1E0
S31502001C6094F82730012B52D0E369E3B12169C023EE
S31502001C70CA7922F04002CA71216901E0013B02D011
S31502001C80CA795206FAD4EFF30383103B234A5BB2B6
S31502001C9003F5C65352F8231021F4803142F823107B
S31502001CA052F8233038BD94F82A203AB3012022682C
S31502001CB01B4D92F90F20510902F01F02203100FA42
S31502001CC002F245F82120BFF34F8FBFF36F8F4FF01B
S31502001CD0040C2169CA7942F08002CA71226982F82B
S31502001CE001C021694A7963F300024A7184F82C0023
S31502001CF0BCE705212046FFF70DFDAEE70821226964
S31502001D00537A03F0F703537223695970AEE794F8D6
S31502001D103030002BAAD0A7E7F06300220060004013
S31502001D2000E100E038B5EFF303834F4A103B5BB2A4
S31502001D3052F823000269537A517ADC0601F0E00177
S31502001D4051725FFA83FC03F003022CD503695978BA
S31502001D5049064ED40024012580F82B50DC71016817
S31502001D60FFF7F6FCB32290F82630816980F8283016
S31502001D70036980F82C400162C46180F82A40294632
S31502001D80DA71FFF7C7FCEFF30383103B374A5BB206
S31502001D9003F5C65352F8231021F4803142F823107A
S31502001DA052F8233038BD002A5CD11CF0080F11D03E
S31502001DB0C369002B45D190F82B30002B41D1B322B9
S31502001DC090F829100369C1F10301C9B2DA71FFF76C
S31502001DD0A1FCD8E790F82C200CF0040342B3002BA8
S31502001DE0D1D0C369002B3BD190F82B30002B37D1D1
S31502001DF0E5E7002AAED15A78C2F380115206D4D54D
S31502001E00082280F82B105A70036801695A6A94797D
S31502001E101378527943EAC41343EA021343F00203E6
S31502001E20DBB2CB700269537943F001035371AAE71F
S31502001E30002BA8D003685B6ADB79002BA3D00421B0
S31502001E40C5E70023B32190F826508469026980F819
S31502001E502C3080F828500462C36180F82A30D17190
S31502001E600121B4E7036975E7F063002200600040D0
S31502001E7003460020D3E902239360704703460020FD
S31502001E80D3E902235360704703460020D3E90223B5
S31502001E90D3607047034670B45A689E68D2690020C0
S31502001EA09168D46841F00045516875619D6844F0B7
S31502001EB00044AC619C6841F0004121611469996853
S31502001EC04C629B6852699A6270BC704703464FF037
S31502001ED00041002210B49C68104621619C68616131
S31502001EE09C68A16199684A629B689A625DF8044B94
S31502001EF0704700BF83684A1E9A6643681B782BB9EF
S31502001F008368490801395965836899658368D96A7E
S31502001F10C90707D44FF4AA015A6683681964D0E93F
S31502001F200232DA6000207047032A836809D0042A45
S31502001F3008BF03221232013903EB820300205960E3
S31502001F4070470422F6E700BF03469A680020D26A69
S31502001F50C2F300020A719B689B6C0B60704700BF5C
S31502001F6084460020CCE90632CCF81410704700BF34
S31502001F7070B5836984B004468C46164601AD9BB1A2
S31502001F8093E8070085E8070083F804C09E60E269CB
S31502001F9018461A6063699847A3691BB195E807005A
S31502001FA083E8070004B070BD2B46EDE730B48C6EB3
S31502001FB001342AB1944203D930BC013A1A607047FF
S31502001FC0029D496B0078ED0754BF01F01F01C1F372
S31502001FD00441032808D9090981F001016AB9A1B9A6
S31502001FE030BC02225A60704701F00C01A1F10401D3
S31502001FF0B1FA81F14909002AF1D0944201D80029A7
S31502002000EED130BC03225A607047002CE8D0F8E7C4
S315020020102DE9F04F4FF0FF3A4FF0000B866885B07E
S31502002020009202AB074688461446406802F003094E
S315020020300A463146CDE902ABFFF7B8FF039B356B83
S3150200204093B914F0080F14BF04220222A1070298C2
S3150200205020D502F1120106EB81014860B9681332FC
S3150200206001EB82014860BE6862061BD5326CB9F18B
S31502002070010F42F48002326427D025F44035BE684F
S3150200208045EA0345B9F1000F16D10020356305B0C4
S31502002090BDE8F08F4A44123206EB820250606206B5
S315020020A0BE68E3D4B9F1010F23D025F44035022CE2
S315020020B045EA0345E6D173B925F0407545EA03655D
S315020020C00020356305B0BDE8F08F25F04075BE6887
S315020020D045EA0365F4E70124786802AB42463146D5
S315020020E00094FFF763FF039B25F0407545EA0365FD
S315020020F0E6E7022CE0D1DEE730B582681E4D526E6D
S315020021001E4B01328A6082681B68D06A2C6AAA8CCE
S3150200211004F00F0502F00F0C45EA0C0E1EF0080F34
S31502002120C0F3C35013D092B212F0080F18D1012295
S3150200213014F0080F02FA0CF21BD0032504F0070470
S3150200214005FA04F402FB03F3B3FBF4F302E003FA29
S315020021500CF3EB400122C3404B6000200A7030BDF5
S315020021604FF0030C02F0070214F0080F0CFA02F209
S31502002170E3D10124AC40E5E700E00140806400229F
S3150200218030B44268034692F91210D269002911DB73
S3150200219001244F4D480901F01F0C203004FA0CF4BB
S315020021A045F82040BFF34F8FBFF36F8F0024494895
S315020021B040F8214092F92810002911DB0124444DF0
S315020021C0480901F01F0C203004FA0CF445F82040AF
S315020021D0BFF34F8FBFF36F8F00243E4840F8214074
S315020021E092F92910002911DB0124394D480901F021
S315020021F01F0C203004FA0CF445F82040BFF34F8F31
S31502002200BFF36F8F0024334840F8214092F92A1019
S31502002210002911DB01242E4D480901F01F0C203044
S3150200222004FA0CF445F82040BFF34F8FBFF36F8FCB
S315020022300024284840F8214092F92B10002911DB8E
S315020022400124234D480901F01F0C203004FA0CF436
S3150200225045F82040BFF34F8FBFF36F8F00241D4810
S3150200226040F8214092F92C10002911DB0124184D67
S31502002270480901F01F0C203004FA0CF445F82040FE
S31502002280BFF34F8FBFF36F8F0024124840F82140EF
S3150200229092F92D20002A11DB01200D4C510902F082
S315020022A01F0C203100FA0CF044F82100BFF34F8FC7
S315020022B0BFF36F8F0020074941F822000020D3E9BF
S315020022C00221186091609B68586330BC704700BF5A
S315020022D000E100E0F06300224FF0010C2DE9F0432B
S315020022E00B7C00250CFA03F3C360C3F30D03B3FAA8
S315020022F083F35B09416003740B7CAC4AAC4F1A440E
S31502002300120282604B690E4643618B690446C0E93C
S31502002310065385B0CD69C7F810CFEFF310878CF35B
S315020023201088097CA34B0A1F052A83BF4FF000427F
S31502002330CA40D2436FF000621B6913409D4A136183
S31502002340136901211E2000F009FF87F31088E36854
S3150200235019070DD0EFF31081012383F31088964AF3
S31502002360E06853889BB223EA0003538081F3108806
S315020023704FF425400022A3684FF000411860A3687D
S31502002380DA62A368DA63A3689A64337A3078DB0583
S31502002390032843F4803008BF0346A7687068FB62CF
S315020023A0A36801381961A3685961A3689961A16894
S315020023B04A62A1688A62A168AB69CB61A168EB69CE
S315020023C00B62A1688866A16848664FF0FF3000215B
S315020023D0CDE9020130782F6D002840F0F28101200C
S315020023E04FF0030E7368D4F808805B08013B029332
S315020023F0C8F85430A26893653278032A03D9A268D2
S31502002400D365A26813662B6DD3B92B78A3B1337843
S315020024106A78022B4FEA821C4FEA021100F004820C
S31502002420032B03D0002A0CBF062309233B4343EAAE
S315020024300C030B4343F48077AB78002B40F0DC812E
S3150200244000236268D16991F8482001F1300CDA4024
S31502002450D2070ED5032B5CF8232016D0042B21D0ED
S3150200246002F1FF38A26803F1120902EB8902C2F8EF
S3150200247004800133062B1DD091F84820DA40D2079A
S31502002480F7D5032B5CF82320E8D1A368013ADA6575
S3150200249091F84820D30640F1A9810423042BDCF8E5
S315020024A01020DDD1A368013A9A6591F848309B065F
S315020024B000F19E810123327C9340C3F30D0313B1D5
S315020024C00022A3685A640023A2689363A268C2F832
S315020024D088302B6D3BB995F8213095F820205B07A3
S315020024E043EA42331F4395F84830002B14BF4FF49A
S315020024F0A0024FF4AA02A3681A643378012B04D10E
S315020025000023A268D364A2681365A3685F63A26806
S3150200251095F85410D36A43EA011395F8551043EA25
S315020025204113D362A368C3F830E0A3681863D4E901
S315020025300232DA6096F91230002B26DB727C03F146
S31502002540604112011D48D2B201F5614181F80023B2
S315020025501B4A40F8234003F5C65152F8210020F4E5
S31502002560803042F8210052F82120BFF35F8F01210B
S315020025705A09920003F01F0302F1604202F561421A
S3150200258001FA03F3C2F88031136095F92830002B63
S3150200259035DB95F8222003F1604112010748D2B2D9
S315020025A001F5614181F800230CE000BF20324000B2
S315020025B0003032400030204000403240F0630022BA
S315020025C0006000409A4A40F8234003F5C65152F88B
S315020025D0210020F4803042F8210052F82120BFF376
S315020025E05F8F01215A09920003F01F0302F1604234
S315020025F002F5614201FA03F3C2F88031136095F9DC
S315020026002930002B27DB95F8232003F160411201C4
S315020026108848D2B201F5614181F80023844A40F824
S31502002620234003F5C65152F8210020F4803042F8C7
S31502002630210052F82120BFF35F8F01215A0992002F
S3150200264003F01F0302F1604202F5614201FA03F34D
S31502002650C2F88031136095F92A30002B27DB95F8F2
S31502002660242003F1604112017248D2B201F56141A0
S3150200267081F800236E4A40F8234003F5C65152F80A
S31502002680210020F4803042F8210052F82120BFF3C5
S315020026905F8F01215A09920003F01F0302F1604283
S315020026A002F5614201FA03F3C2F88031136095F92B
S315020026B02B30002B27DB95F8252003F16041120110
S315020026C05C48D2B201F5614181F80023584A40F8CC
S315020026D0234003F5C65152F8210020F4803042F817
S315020026E0210052F82120BFF35F8F01215A0992007F
S315020026F003F01F0302F1604202F5614201FA03F39D
S31502002700C2F88031136095F92C30002B27DB95F83F
S31502002710262003F1604112014648D2B201F5614119
S3150200272081F80023424A40F8234003F5C65152F885
S31502002730210020F4803042F8210052F82120BFF314
S315020027405F8F01215A09920003F01F0302F16042D2
S3150200275002F5614201FA03F3C2F88031136095F97A
S315020027602D30002B27DB95F8272003F16040314DF1
S3150200277012012F49D2B200F5614080F8002303F519
S31502002780C65245F8234051F8220020F4803041F821
S31502002790220051F82220BFF35F8F01215A099200CD
S315020027A003F01F0302F1604202F5614201FA03F3EC
S315020027B0C2F88031136000201F4B236005B0BDE8CC
S315020027C0F0830128D4F8088029D00092F268606864
S315020027D002AB4146FFF7EAFBDDE90232100440EAAA
S315020027E0026040F0030E40F0010001E605232EE6EA
S315020027F00523DCF8142033E6E97832780B01022A45
S3150200280043EA811312D0032A03D000290CBF062201
S315020028100922134347EA034343F0807710E64FF059
S31502002820030E4FF0FF33E3E50923FFE50922F0E744
S3150200283000600040F0630022545047002DE9F04149
S31502002840EFF30383103B7B4C59B201F5C65E54F895
S315020028502E008A0020F4803002F1804244F82E00D5
S3150200286002F54042D2F80003734850F82100456849
S3150200287095F800C0ED69BCF1010F09D043692BB18F
S31502002880BDE8F04100221146FFF772BBBDE8F081B8
S315020028904FF00008D0E90276BE60866803F0FF03B7
S315020028A0C6F848808668C6F84C808668C6F85080A6
S315020028B054F82E7068F3104744F82E70D2F80023AD
S315020028C0BFF35F8F5D4A490903F01F030CFA03F356
S315020028D0603142F8213095F84830D90703D595F989
S315020028E02810414576DA9B0704D595F92930002B45
S315020028F080F2888095F92A30002B53DA95F92B302D
S31502002900002B37DA95F92C30002B1BDA95F92D308E
S31502002910002BB3DB474A03F5C65152F8214024F493
S31502002920803442F8214052F82120BFF35F8F012103
S315020029305A09424C03F01F03603201FA03F344F8CA
S3150200294022309BE73B4A03F5C65152F8214024F454
S31502002950803442F8214052F82120BFF35F8F0121D3
S315020029605A09364C03F01F03603201FA03F344F8A6
S315020029702230CBE72F4A03F5C65152F8214024F400
S31502002980803442F8214052F82120BFF35F8F0121A3
S315020029905A092A4C03F01F03603201FA03F344F882
S315020029A02230AFE7234A03F5C65152F8214024F4F8
S315020029B0803442F8214052F82120BFF35F8F012173
S315020029C05A091E4C03F01F03603201FA03F344F85E
S315020029D0223093E701F5C65354F8237068F3104783
S315020029E044F8237054F82330BFF35F8F4C0901F08B
S315020029F01F010CFA01F304F1600142F8213095F847
S31502002A00483070E70B4A03F5C65152F8214024F4C8
S31502002A10803442F8214052F82120BFF35F8F012112
S31502002A205A09064C03F01F03603201FA03F344F815
S31502002A3022305FE700600040F063002200E100E020
S31502002A40844630B482B0019100921E4990F9042066
S31502002A501D4D51F8220002F5C65255F822101B4CA4
S31502002A6021F0807145F822109CF9041041F40041CE
S31502002A70E28992B29142FBD008222274019A0AB1EB
S31502002A80019A4260009A0AB1009A8260C27802F004
S31502002A90C001802914D03F2A98BFC3811822002082
S31502002AA00A4B09491A749CF9043003F5C65351F8C6
S31502002AB0232042F0807241F8232002B030BC7047D6
S31502002AC08381EBE7000000220060004000AC00407A
S31502002AD00620704706207047034693F904300549DD
S31502002AE003F5C65351F82320002042F0807241F8C4
S31502002AF02320704700600040034693F904300549DD
S31502002B0003F5C65351F82320002022F0807241F8C3
S31502002B102320704700600040002290F90400124B07
S31502002B2053F82030C1E90022DA783F2A0CD94FF453
S31502002B3080728A60DA89D2B2CA60DA7802F0C0029A
S31502002B40802A09D0002070474FF480328A60DB89E0
S31502002B5000209BB2CB6070474FF480320A609B899B
S31502002B6000209BB24B60704700000022062070478F
S31502002B70062070470346002230B593F904C0074C7D
S31502002B800CF5C65E54F82E10054D21F0807144F8FE
S31502002B902E1045F82C201A60104630BD0060004009
S31502002BA00000002230B5864690F904301D4D03F52B
S31502002BB0C65355F823201C4C22F0807245F8232078
S31502002BC090F9042042F40042E3899BB29A42FBD078
S31502002BD00B46DA789C463F2A05D9DA89D2B202EB4D
S31502002BE0022292B2DA819CF8022010333F2AF0D8F0
S31502002BF04FF0080C18220C4B0C4D83F810C09EF9AE
S31502002C0004C0084C45F82C101A749EF904300020B2
S31502002C1003F5C65354F8232042F0807244F8232069
S31502002C2030BD00BF0060004000AC00400000002242
S31502002C302DE9F0412B4B04461E780D464EB36B68C8
S31502002C4093F90030002B46DB274850F82320002A50
S31502002C5044D123712D68BDB12B46DA7819463F2A35
S31502002C6005D9DA89D2B202EB022292B2DA818A78E5
S31502002C7010333F2AF1D8082118221C4B197494F9F3
S31502002C80041040F821501A74194B00202360BDE845
S31502002C90F08101271F70EFF3108887F31088154B18
S31502002CA01A6822F480021A601B681E20394600F058
S31502002CB055FA88F31088DFF8308080223146404684
S31502002CC001F0F8FE094BC3F814801F736B6893F981
S31502002CD00030002BB8DA0B20BDE8F0810820BDE8F1
S31502002CE0F08100BF906300220000002200AC004089
S31502002CF00043544400302040F0B5234B8BB05D6F47
S31502002D00EA435A67EFF30383103B204A5BB203F5AB
S31502002D10C65152F8210020F4803042F8210052F8C0
S31502002D2021201B4A52F8234063694BB300212269D2
S31502002D3002912A40E0690092A769A2680191CDE951
S31502002D400320FFB1BC463E46BCE80F00EE4605AD89
S31502002D500FC5DCF800302B60BEE80F000FC6DEF8A8
S31502002D600030CCF80030636938469847A4693CB114
S31502002D700DF1140CBCE80F000FC4DCF800502560FE
S31502002D800BB0F0BD6F46EFE70080344000600040B4
S31502002D90F06300221D4A92F82630928CDBB202F0D2
S31502002DA00F02A2F1080103292BD8DFE801F0201651
S31502002DB00C021749174A51F82330A2FB03231B09B9
S31502002DC0154A136070471249124A51F82330A2FB82
S31502002DD00323114ADB08136070470D490D4A51F867
S31502002DE02330A2FB03230C4A9B0813607047084951
S31502002DF0084A51F82330A2FB0323074A5B081360F3
S31502002E007047034951F82330D340D9E700E0014027
S31502002E1080620022ABAAAAAA80640022704700BF81
S31502002E204AF203529FED844B9FED855B38B58A4883
S31502002E308A4B8B498B4CC3E908018B499FED826B08
S31502002E409FED837B9962A4F8FA23A3EC045F83EDDA
S31502002E50007FFFF79FFF09230A2284F8502A84F88D
S31502002E60A23094F8003C23B994F8013C980700F08C
S31502002E70DC807C4C94F8003C002B00F0CB800022D6
S31502002E80784B83F8012C83F8002C0023754A82F8CC
S31502002E90323092F83C301907FBD540F22344002029
S31502002EA04FF6021140F65103704DC2F8C850A2F80F
S31502002EB04E4082F84A00C2F8AC10A2F84C30BFF37A
S31502002EC04F8FBFF36F8F6A4B596921F400315961F5
S31502002ED0C3F85002BFF34F8FBFF36F8F65490B687C
S31502002EE023F440530B60BFF34F8FBFF36F8F012064
S31502002EF0137D01F1C04160F3020313750B7DDA06FF
S31502002F00FCD45C4A136843F440531360BFF34F8FFB
S31502002F10BFF36F8FA2F57342536913F4003311D1D5
S31502002F20BFF34F8FBFF36F8FC2F85032BFF34F8F8D
S31502002F30BFF36F8F536943F400335361BFF34F8F6F
S31502002F40BFF36F8F0023474A82F82A3092F83C304B
S31502002F509B06FBD50022484B1A701A781A781A7803
S31502002F605A68FA2A04D0454959605A68FA2AFBD1A6
S31502002F70414B9A687D2A04D0414999609A687D2A14
S31502002F80FBD1052242F22011364B3E481862998443
S31502002F9083F82620FFF7FEFE01211E2000F0DEF850
S31502002FA0354A5368C3F30903642B84BF01231370A4
S31502002FB0FFF7F0FE4AF20152334B1A80BFF35F8FDE
S31502002FC001211972BFF35F8F4FF42540254A1880FD
S31502002FD082F8531092F8553043F0400382F8553088
S31502002FE092F85530DB09FBD0CA23022082F854003E
S31502002FF082F8553092F855301A4903F0BF0382F829
S31502003000553091F85530DB09FBD14FF42543A1F831
S31502003010FA3338BD0121C82084F8001C00F09EF85E
S3150200302094F8003C012BFBD129E74FF47A70FFF7A5
S31502003030F5FE2AE7AFF30080006CDC0200127A008C
S315020030400080000000366E010080000000CA9A3B34
S315020030500046C3235543DE138ED73E0D80620022FF
S315020030600008AF2F00E0014000389C1C022B010033
S3150200307000ED00E000E001E000C01340FA00001E8F
S315020030807D0000E13234233200200040014B53F828
S31502003090200070478062002238B50025284C0121A5
S315020030A0C82084F8285000F059F884F8245094F87F
S315020030B02430002BFBD194F82430214943F002033B
S315020030C084F8243091F82430C3F340009B07F9D4E6
S315020030D01B4A81F8220092F8223003F0FF00002BEF
S315020030E0F9D192F84030164960F3C71382F840309E
S315020030F091F84030DB09FBD191F84200104A63F3A4
S31502003100C71081F8420092F84230DB09FBD192F8EF
S3150200311044000B4963F3C71082F8440091F8443027
S31502003120C3F3C014DB09F9D1012000F0C3F8054B43
S31502003130012083F84C4CBDE8384000F08BB800BF44
S315020031400020204000E00140704700BF00BEFEE7BD
S31502003150A0F101000028FBD1704700BF1E4B1F4A99
S315020031601B6800FB01F1934213D302F1854202F57B
S31502003170071203F5742302F6834203F23F23A2FBEE
S3150200318003239B0CA3FB01314FF0FF30E1B1FFF7A4
S31502003190DFBF4FF47A7210B4114C4FF0FF30B4FB1C
S315020031A0F3F3A1FB02C434B9BCFBF3F080B15DF8C2
S315020031B0044BFFF7CDBFB1FBF3F1A1FB0212002ACC
S315020031C0F5D1084620B1F2E71846002BDFD1704749
S315020031D05DF8044B704700BF8064002200127A003B
S315020031E000CA9A3BF8B5002401260D4B0D4FD3F8C1
S315020031F00021D3F82051154006FA04F32B4204D0DD
S3150200320057F82430E0B203B198470134152CF3D1B4
S31502003210034AC2F81051D2F820312B42FBD1F8BD35
S3150200322000C00040986300220022202310B4074801
S31502003230074C30F8021F02F5C65C013209B144F8A8
S315020032402C10013BF5D15DF8044B704796780002CD
S3150200325000600040EFF31081012383F31088124BC4
S3150200326033F8102092B22AB133F81020013A92B202
S3150200327023F8102033F810309BB293B910B40B4ADE
S315020032800B4CB2F8FA3334F810009BB243F42543E0
S3150200329023EA0003A2F8FA3381F310885DF8044B9F
S315020032A0704781F3108870477064002200E0014085
S315020032B0C07B000230B4EFF31081012383F3108840
S315020032C00E4A32F810309BB26BB90D4C0D4DB4F864
S315020032D0FA3335F810C09BB243EA0C0343F4254394
S315020032E09BB2A4F8FA3332F8103001339BB222F8BB
S315020032F0103081F3108830BC704700BF7064002222
S3150200330000E00140C07B000208B509490A6883183B
S31502003310B3F5005F03D807480B60104408BD01F0FF
S315020033201BFC0C2203461A604FF0FF3008BD00BF9B
S315020033307C64002280020022F8B50646304C94F8DE
S31502003340503C03F0FF05002BF9D187221023A4F885
S31502003350242C84F8003C002E3FD101220023284968
S3150200336081F8022C81F8013C91F8503C002BFBD1EC
S31502003370D6B14FF40C73224AA1F8483C92F8503C5D
S31502003380D807C3F30001F9D447F208040120112338
S315020033901C4DC2F8445C82F8401CA2F8144C82F818
S315020033A0160C82F8003CF8BD47F208000123154CC2
S315020033B0134AC1F8444C81F8406CA1F8140C81F808
S315020033C0163C92F8003CDB07FBD492F8503C002BEB
S315020033D0F7D1012382F8103CF8BD01272846FFF7F2
S315020033E069FF094B284683F85370FFF733FF044AF7
S315020033F084F8207C92F8503C1C07FBD4ADE700BF52
S31502003400003000400325050000E0014000BE704781
S3150200341008B500F035F8FDF741F9FEE7F8B5174FA4
S3150200342005463E68A6B17C6806EB460604EB8606B0
S3150200343002E00C34B4420BD0637AAB42F9D1D4E940
S3150200344000020021121A0C3401F034FBB442F3D10B
S31502003450BE6896B1FC6804EB061602E01034A6427A
S315020034600BD0637BAB42F9D1D4E90002A168121AF0
S31502003470103401F088FBA642F3D1F8BD9079000220
S31502003480F8B5844A844B5A61BFF34F8FBFF36F8FEF
S315020034901B6803F47002B2F5801F00F0D48013F4A7
S315020034A0600F00F0BC807D4A136823F004031360AA
S315020034B0BFF34F8FBFF36F8F4FF47002784B764C8A
S315020034C00020C4F88820A360FDF7D6F80025FFF790
S315020034D0A7FC4AF202514FF42542724B0120A3F88F
S315020034E0FA1383F8B05AA3F8FA23FDF7C5F86E4B20
S315020034F083F30A88694B1A68910704D5A268B2F168
S31502003500007F00F0A4800020FFF788FFFFF742FC4F
S31502003510FFF7C2FD0320FFF7CDFE00234FF00E0E8C
S315020035201C464EF001E0614903F10C0221F82240EB
S3150200353001330FF007C80320FFF78CFE0320FFF7C5
S31502003540B9FE5B4B03205C609C60DC601C61554CE1
S31502003550FFF780FED4F8D8339A0747D5D4F8D83384
S31502003560504CD4F8D8335B0727D5D4F8D833022089
S31502003570FDF782F80120FFF751FFBFF34F8FBFF32C
S315020035806F8F0024444BC3F85042BFF34F8FBFF3F3
S315020035906F8F484B484D5B1BA3424FEAA30605DDDE
S315020035A055F8043B01349847A642F9DCFFF73CFE86
S315020035B0BDE8F8400020FFF7C7BD94F81431002B90
S315020035C0D5D00120FFF776FE94F8143103F0C0033C
S315020035D0802BF9D10023334A84F8143192F814313E
S315020035E03F2BFBD80120FFF735FEC0E794F81031D8
S315020035F0002BB5D00120FFF75DFE94F8103103F0E1
S31502003600C003802BF9D10023264A84F8103192F8A0
S3150200361010313F2BFBD80120FFF71CFEA0E71F4A03
S31502003620136843F004031360BFF34F8FBFF36F8F2A
S315020036304FF0E022936843F480339360BFF34F8FD9
S31502003640BFF36F8F38E718077FF42DAF27E7012105
S315020036501A695869C2F3C302093201FA02F3002653
S315020036600027DB0843F005C0E5E802670FF005C056
S31502003670C0F3C303093301FA03F34FF00052DB0828
S3150200368043F007C0AFF30080E2E802670FF005C01F
S3150200369039E700BF01020E0000ED00E000E001E0A4
S315020036A00000000200E0014080220022000D40409E
S315020036B000402040944D0102904D0102024A1368D7
S315020036C001331360704700BF8464002250B303794C
S315020036D04BB3022B26D170B517481849056801EB82
S315020036E00533BFF34F8F4FF0800E4EF001E0144AC0
S315020036F0C2F85C3220330FF005C8BFF34F8FBFF319
S315020037006F8F104C0368104AA66883F001030360AA
S3150200371001EB0331156033694FF4805220689847F4
S3150200372020B970BD7047094A137070470146BDE85B
S315020037307040074801F054B898640022A06800223D
S3150200374000ED00E0E8740002A0000022906400226E
S3150200375068720002F8B52E4B9D681E682A683046CC
S3150200376059689047002847D16B683046984740F21F
S315020037700312284B28485A63596B01F031F8274B3C
S315020037809D681E682A68304659689047044668BB99
S31502003790234801F095F84FF0FF300121214B224AD0
S315020037A01860224B14601C60214B4FF400521970B2
S315020037B02048214601F07EF94FF4806221461E48D8
S315020037C001F078F91D4FDFF888C04FF48052304679
S315020037D018492B69CCF800403C60984798B94FF4D9
S315020037E00071174800F0FCFF2046F8BD0146154857
S315020037F000F0F6FF2046F8BD04460146124800F0E6
S31502003800EFFF2046F8BD0146104800F0E9FFE6E763
S315020038106074000200213240C4720002E8740002A1
S315020038201C730002A0000022986400229464002205
S3150200383090640022A0680022A0640022886400220C
S3150200384038730002F8720002907200026872000277
S315020038508C6400222DE9F04FDFF8A4A0DAF80030DC
S31502003860002B3DDB00244FF4007E47F65C7947F6D9
S31502003870FF784EF001E021461B4ADFF888B002EBE2
S31502003880033C1A4BDBF800501B68194E194F2A46A7
S3150200389009FB03F35CF831000131C2EB204202EB73
S315020038A0E333DA00BA42B8BF3A464245A8BF4246B7
S315020038B0002A26F8022FB8BF52429442B8BF1446D5
S315020038C005140FF01DC04FF0FF320B490748CBF825
S315020038D0005003600C60CAF800200848BDE8F08F6B
S315020038E00020BDE8F08F00BFA06800228864002295
S315020038F09E6400220080FFFF94640022A0640022DE
S31502003900A00000228C64002208B54FF451720021F7
S31502003910084801F0CFF841F678620021064801F026
S31502003920C9F8002305480649064A03600B6013706E
S3150200393008BD00BF08BC0022889D002204BC0022EC
S3150200394000BC0022809D0022002940F3A6812DE9B9
S31502003950F04F2DED088B871E8BB007EB41039FEDD1
S31502003960CFAADFEDCF9ADFEDCF8A9FEDCF9A0893EC
S3150200397003E0089B9F4200F08B8137F9023FCB4957
S3150200398007EE903AF8EEE77A67EE8A7A0B68C84A4B
S3150200399002EB83020133D02BC2ED007A0B60E8DD25
S315020039A04FF400620021C34801F084F84FF400622C
S315020039B00021C14801F07EF84FF0D10EBD4C4EF009
S315020039C001E0A0462246BA49BC4BF1EC017AB3ECBF
S315020039D0017A67EE877AE2EC017A0FF00BC0B64DF8
S315020039E00026AA46AC46DFF8FC92A9F5006009213A
S315020039F03346002241F001E003F0010141EA4202AE
S31502003A005B100FF007C8B2420FDD08EB82030168B4
S31502003A10D3F800E00AEB8202C0F800E01960DCF895
S31502003A2000301168CCF8001013600430484506F1E6
S31502003A3001060CF1040CDAD10926A84609974FF0C3
S31502003A40020B3546274607EE90BA0023F8EEE77AD0
S31502003A509A46C9EEA7AAC4463E46CDE905874FEA6D
S31502003A606B0204924FEA8B014FEA4B000795BBF1BA
S31502003A70010F4DDD0CEB000423463518B0462C46EB
S31502003A8001960027664681461D46CDE9021C07EED1
S31502003A90907AB8EEE7BA2BEE2ABAB0EE4B0A02F0EB
S31502003AA0CBFFB0EE408AB0EE4B0A02F0D1FED4ED67
S31502003AB0005A95ED007A68EE257A28EE078A20EEFE
S31502003AC0077A20EE250AD6ED006A77EEC77A98EDD8
S31502003AD0006A38EE008A36EE676A36EEC87AA4ECD9
S31502003AE0016AA5EC017AF8EC016AB6EC017A76EE87
S31502003AF0A76A77EE087A049B01379F4248ED016A6E
S31502003B0046ED017AC3DBDDE901614846DDF80CC00A
S31502003B10DA44BAF5007F0E448C44A8DBDDE905875A
S31502003B20079D4FEA4B0B013D8DD13C46DFF8B8E1CC
S31502003B30634EAEEB040E4FEA9E0E0EF1010E4546A3
S31502003B4033464EF001E0099FF4EC017AB5EC017AB6
S31502003B5067EEA77A27EE077A77EE877AB1EEE77AEB
S31502003B60A3EC017A0FF011C0564C574A234604F1D2
S31502003B70A00506F2044CACEB060EAEF1040E4FEABB
S31502003B809E0E0EF1010E30461146DFED507A4EF0D2
S31502003B9001E0B1EC017AF0EC016A27EE267A77EEC3
S31502003BA0877A0FF00BC077EEA87AE3EC017A9D4292
S31502003BB002F20442DFD194ED000A02F0DDFDA4EC2C
S31502003BC0010AA542F7D1424C424D04F1A00104F587
S31502003BD00266091BA1F1100E4FEA1E1E0EF1010E1E
S31502003BE02146DFED3A5A4EF001E03648B1EC047F49
S31502003BF0B0EC043F06FF526D36EE102B37EE10CBBB
S31502003C0017EE103B75EE865A07EE902A07EE103A2B
S31502003C1077EEA57A77EE277A07EE10CA77EE875AFD
S31502003C200FF01DC0C5EE897AA034A642E5EC017AF2
S31502003C3001F1A001CDD1DFF8B4C0274CDCF8006059
S31502003C40244D06EB460206EB820204EB82040FCDFC
S31502003C500FC40FCD0FC40FCD0FC401362B68952E9E
S31502003C60CCF80060236005DD00230122CCF8003089
S31502003C701A4B1A701A494FF4FA72A1F5A87000F09D
S31502003C80FFFE7D23094A1360089B9F427FF475AEAF
S31502003C900BB0BDEC088BBDE8F08F70470000003812
S31502003CA0DB0FC9C0BD378635BD1B0F4104BC0022E0
S31502003CB008BC002280950022808D002290240102F9
S31502003CC078890022D8880022F083000200000000D2
S31502003CD0D07B0002A0880022889D0022809D0022BF
S31502003CE058BD0022809D00228099002200BC00223D
S31502003CF0014B1878704700BF809D00220022024BBC
S31502003D0002481A70704700BF809D0022889D0022DB
S31502003D104FF0FF3000220249024B08601A707047CA
S31502003D20A40000224CBF002210B540F29E7E2DED6B
S31502003D30028B4EF001E09FED238A234B84B0F3EC15
S31502003D40017AB0EC017A67EE877A38EE278A0FF0AD
S31502003D500BC0B1EE480A02F09DFCB7EE007A70EE97
S31502003D60077A9FED1A6AC7EE276AF4EEC66AF1EE83
S31502003D7010FA14DDB7EEC88AB7EEE65A01241449E2
S31502003D8053EC182B8DED005B0291124800F028FDD2
S31502003D902046114B1C6004B0BDEC028B10BD9FED9A
S31502003DA00F6AF4EEC66AF1EE10FA0D4B0D49B7EE44
S31502003DB0C88AB7EEE65A4EBF00244FF0FF341946C2
S31502003DC0DEE700BF55BD19B9D8270102CDCC0C3F9D
S31502003DD07873000280730002A40000226666E63E43
S31502003DE07073000274730002F0B52DED028BB0EE13
S31502003DF0408B85B017460C460D9D18EE902A0C9EF8
S31502003E0025F02005002AB6BF2D220022B1EE408BF6
S31502003E10462D1A7004D0452D00D10134022100E04E
S31502003E20032103ABB0EE480B2246019302AB00938B
S31502003E30334600F04DFF472D14D1FB070AD5021970
S31502003E40B5EE408B3021F1EE10FA08BF0392039BC8
S31502003E50934219D3039B0E9A1B1A136005B0BDEC4D
S31502003E60028BF0BD462D00EB0402E9D10378302B1C
S31502003E7007D1B5EE408BF1EE10FA1CBFC4F1010476
S31502003E80346033681A44DBE75C1C03941970DEE77E
S31502003E90F7B500290270BABF49422D232B230929FF
S31502003EA0437028DD0DF107030A271D461A46013B1A
S31502003EB0B1FBF7F607FB1614303402F8014C0C4638
S31502003EC03146632CF2DC3031941E03F8011C411C8E
S31502003ED02346AB420AD30DF109039B1AAC4288BFB3
S31502003EE0002302330344181A03B0F0BD13F8016B22
S31502003EF001F8016FEDE7302330318370031DC17085
S31502003F00F1E70000000000002DE9F04F8DB00C46ED
S31502003F1016461F46DDF85880054600F0D3FDD0F858
S31502003F2000B0584600F03CFE002394F818900A931D
S31502003F30D8F8003022680733059023F0070303F10F
S31502003F400801C8F8001093ED000B9FED976BB0EED9
S31502003F50C07B84ED120BB4EE467BF1EE10FA24DD43
S31502003F60B5EEC00BF1EE10FA02D52D2384F84330DC
S31502003F708F49904BB9F1470F8CBF8846984622F07D
S31502003F80040203234FF0000A2260236133460BAA80
S31502003F9021462846009700F0D1F9013040F0898089
S31502003FA04FF0FF300DB0BDE8F08FB4EE400BF1EEEE
S31502003FB010FA09D710EE903A7F49002BBCBF2D2389
S31502003FC084F843307D4BD5E7636809F0DF0A591C54
S31502003FD039D10623636042F48062002328462260B8
S31502003FE003930AABCDE9019309AB00930DF12303C9
S31502003FF06168FFF7F9FEBAF1470F8046099929D1A0
S31502004000C81C02DB6368994241DDA9F102095FFA25
S3150200401089F901394A4604F150000991FFF738FF40
S315020040200A9A82461318012A236102DC2268D20701
S3150200403001D5013323619DF82330002BA6D02D2311
S3150200404084F84330A2E7BAF1470FC4D1002BC2D19C
S315020040500123BFE7B9F1650FDBD9B9F1660F18D1B4
S31502004060002963680BDD216113B92268D00702D5E6
S3150200407001330B4423614FF0000AA165DBE713B954
S315020040802268D20701D50233F4E70123F2E74FF0A3
S3150200409067090A9B994205DB23682161D807EAD59D
S315020040A04B1CE7E70029D4BFC1F1020201221344E7
S315020040B0E0E723685A0507D4236942463146284673
S315020040C0B84701302AD16BE7B9F1650F40F2E080BB
S315020040D094ED127BB5EE407BF1EE10FA33D101235B
S315020040E0374A31462846B84701303FF459AFDDE931
S315020040F00938434502DB2368D8070FD5059B5A4684
S3150200410031462846B84701303FF44AAF4FF000091E
S3150200411008F1FF3804F11A0AC84509DC23689B072F
S3150200412000F10781E0680B9B9842B8BF184639E751
S315020041300123524631462846B84701303FF430AF94
S3150200414009F10109E8E7099B002B3BDC01231C4A24
S3150200415031462846B84701303FF422AFDDE9093936
S3150200416059EA030302D12368D907D7D5059B5A46D4
S3150200417031462846B84701303FF412AF4FF0000AE5
S3150200418004F11A0B099B5B42534501DC4B4694E74B
S3150200419001235A4631462846B84701303FF400AF5C
S315020041A00AF1010AEEE700BFFFFFFFFFFFFFEF7F05
S315020041B054460102504601025C460102584601027B
S315020041C060460102A36DDDF828A05345A8BF5346F9
S315020041D0002B994637DC002329EAE97904F11A0211
S315020041E00793A36D07990693A3EB09038B4231DC70
S315020041F0099B9A453BDC2368DA0738D4099BAAEB6C
S315020042000309069BAAEB03039945A8BF9946B9F190
S31502004210000F34DC4FF0000829EAE97904F11A0BA1
S31502004220099BAAEB0303A3EB090343457FF776AF8A
S3150200423001235A4631462846B84701303FF4B0AE0C
S3150200424008F10108ECE7424631462846B8470130F4
S31502004250C1D1A5E60123314628460692B847013068
S315020042603FF49EAE079B069A01330793B9E7059B77
S315020042705A4631462846B8470130BFD190E6069ADB
S315020042804B46314628464244B8470130C2D187E6FA
S31502004290DDF82890B9F1010F01DCDB0736D50123E1
S315020042A0424631462846B84701303FF479AE059B6F
S315020042B05A4631462846B84701303FF471AE09F1F5
S315020042C0FF3994ED127BB5EE407BF1EE10FA18D071
S315020042D04B4608F1010231462846B84701300CD157
S315020042E05EE601235A4631462846B84701303FF476
S315020042F057AE08F10108C845F3DB534604F15002F4
S31502004300DCE64FF0000804F11A0BF4E701234246FB
S31502004310E1E701234A4631462846B84701303FF4D1
S315020043203FAE08F10108E3680B995B1A4345F0DCDE
S31502004330F8E64FF0000804F11909F4E72DE9F04711
S31502004340164698468A6807460B690C46DDF82090A1
S315020043509342B8BF1346336091F843200AB1013342
S3150200436033602368990642BF336802333360256897
S3150200437015F0060506D104F1190AE36832689B1A9C
S31502004380AB422BDC94F843302268003B18BF012372
S31502004390920630D404F1430241463846C8470130FA
S315020043A023D023681A3454F80A2C03F00603042B8C
S315020043B00ABF54F80E5C002533684FF0000608BFAA
S315020043C0ED1A54F8123C08BF25EAE5759342C4BFBC
S315020043D09B1AED18B5421AD1002008E00123524675
S315020043E041463846C847013003D14FF0FF30BDE899
S315020043F0F0870135C1E7E1185A1C30200233224406
S3150200440081F8430094F8451082F84310C2E701236D
S31502004410224641463846C8470130E6D00136D9E73A
S315020044202DE9FF470F7E914680460C46782F9A4625
S315020044300C9E01F1430207D8622F0AD8002F00F022
S31502004440D180582F00F0B88004F1420684F84270F9
S315020044503AE0A7F16303152BF6D801A151F823F030
S31502004460B9440002CD440002494400024944000214
S315020044704944000249440002CD4400024944000274
S31502004480494400024944000249440002CB45000265
S31502004490F7440002854500024944000249440002ED
S315020044A0ED45000249440002F74400024944000275
S315020044B0494400028D45000233681A1D1B683260AA
S315020044C004F1420684F8423001239CE033682068F6
S315020044D0191D3160060601D51D6803E04506FBD5A8
S315020044E0B3F90050002D03DA2D236D4284F84330D0
S315020044F058480A2311E021683368080653F8045B1A
S3150200450002D4490648BFADB26F2F3360514814BF7B
S315020045100A230823002184F843106668002EA66049
S3150200452005DB21682E4321F0040121604BD016469B
S31502004530B5FBF3F103FB1157C75D06F8017D2F4664
S315020045400D46BB42F4D9082B0BD12368DF0708D5E9
S31502004550236961689942DEBF302306F8013C06F101
S31502004560FF36921B22614B4603AA21464046CDF8EE
S3150200457000A0FFF7E3FE01304AD14FF0FF3004B04E
S31502004580BDE8F087236843F020032360782732488A
S31502004590236884F845701F06316851F8045B02D41B
S315020045A05F0648BFADB23160D90744BF43F020036E
S315020045B023601DB11023ADE72648E9E7236823F0FF
S315020045C020032360F6E71646BDE733682568181D03
S315020045D0616930602E061B6801D5196002E0680623
S315020045E0FBD51980002316462361BCE733680021F8
S315020045F01A1D32601E686268304600F0B6FA08B1CB
S31502004600801B606063682361002384F84330AAE755
S315020046102369324649464046D0470130ADD0236829
S315020046209B0713D4E068039B9842B8BF1846A6E7D7
S315020046300123324649464046D04701309DD00135D6
S31502004640E36803995B1AAB42F2DCEBE7002504F15F
S315020046501906F5E76246010273460102002310B508
S3150200466004468360818119464366C28108228361BA
S31502004670C0E90033C0E904335C3000F01BFA0D4B8D
S31502004680246263620C4BA3620C4BE3620C4B236302
S315020046900C4B9C4206D003F16802944202D0D033FE
S315020046A09C4205D104F15800BDE8104000F05ABA08
S315020046B010BD00BFD1480002F34800022B49000298
S315020046C04F49000250BF0022024A0349034800F044
S315020046D069B800BFA8000022FD630002B8000022EC
S315020046E041680C4B994210B5044601D001F086FE92
S315020046F0A168094B994202D0204601F07FFEE1688B
S31502004700064B994204D02046BDE8104001F076BE21
S3150200471010BD00BF50BF0022B8BF002220C0002239
S3150200472010B50B4B04210B4C0B4A20461A60002293
S31502004730FFF794FF04F1680001220921FFF78EFFBB
S3150200474004F1D00002221221BDE81040FFF786BF15
S3150200475088C0002250BF0022C9460002014800F06C
S3150200476002BA00BF91C00022014800F0FDB900BFA5
S3150200477091C0002210B50446FFF7F0FF236A1BB171
S31502004780BDE81040FFF7F0BF044B2362044B1B68E1
S31502004790002BF5D1FFF7C4FFF2E700BFE1460002A6
S315020047A088C000222DE9F8430746884614460026AB
S315020047B0D4E90195B9F1010905D52468002CF7D190
S315020047C03046BDE8F883AB89012B07D9B5F90E301F
S315020047D0013303D029463846C04706436835E9E720
S315020047E00FB407B5064904AB086853F8042B816871
S315020047F0019301F067FC03B05DF804EB04B0704767
S31502004800B4000022024B01461868826801F07FBE9E
S31502004810B4000022036A70B505460E4684680BB9D9
S31502004820FFF7A8FF636EDB0705D4A389980502D4B8
S31502004830A06D00F098F9A389190702D52369002B08
S3150200484035D12146284600F0C5F880B34FF0FF3532
S31502004850636EDA0705D4A3899B0502D4A06D00F026
S3150200486083F9284670BD002B04DAA2699A4217DC46
S315020048700A2915D023685A1C22601970A36816F8F3
S31502004880011F013BA3600029EDD1002B11DA22465C
S315020048900A21284600F05FF80130D7D00A25D7E76B
S315020048A02246284600F057F80130E7D1CEE7013E0E
S315020048B0E4E723685A1C22600A221A70EEE7000017
S315020048C0024B01461868FFF7A5BF00BFB4000022DD
S315020048D010B50C46B1F90E1000F01AF90028ABBF5C
S315020048E0636DA3891B1823F48053ACBF6365A38150
S315020048F010BD2DE9F0411F468B8905460C46DB05A6
S31502004900164605D502230022B1F90E1000F0EEF884
S31502004910A3893246B4F90E10284623F48053A381A4
S315020049203B46BDE8F04100F005B910B50C46B1F9B9
S315020049300E1000F0DBF8431CA38915BF606523F453
S31502004940805343F48053A38118BFA38110BDB1F9EC
S315020049500E1000F0BBB8F8B50E461446054618B15F
S31502004960036A0BB9FFF706FFA369A360A3891A07B7
S3150200497001D5236943B92146284600F02BF818B120
S315020049804FF0FF373846F8BD2368F6B2226937463C
S31502004990981A6369834205DC2146284601F02EFDFA
S315020049A00028EDD1A368013BA36023685A1C22604C
S315020049B01E70431C62699A4204D0A389DB07E1D5C3
S315020049C00A2EDFD12146284601F018FD0028D9D04B
S315020049D0D6E7000038B5294B05460C46186818B1CB
S315020049E0036A0BB9FFF7C6FEB4F90C30190722D4D5
S315020049F0DA0607D409222A6043F040034FF0FF305B
S31502004A00A38133E0580712D5616B41B104F1440327
S31502004A10994202D0284600F0A9FE00236363A389C7
S31502004A2023F02403A3810023636023692360A389FF
S31502004A3043F00803A38123694BB9A38903F42073C6
S31502004A40B3F5007F03D02146284601F024FDB4F9D0
S31502004A500C3013F001020AD00022A26062695242AF
S31502004A60A261226942B913F08000C5D138BD990707
S31502004A7058BF6269A260F4E70020F7E7B40000229B
S31502004A80884210B501EB020402D98442234607D8B4
S31502004A90431EA14208D011F8012B03F8012FF8E7B3
S31502004AA0024401468A4200D110BD13F8014D02F8B4
S31502004AB0014DF7E702440346934200D1704703F8DB
S31502004AC0011BF9E700487047F401002238B50023BC
S31502004AD0054D044608462B6001F0B4FD431C02D185
S31502004AE02B6803B1236038BD8CC0002238B504465A
S31502004AF0064D0846114600222A601A4601F0BAFD02
S31502004B00431C02D12B6803B1236038BD8CC000223E
S31502004B1038B50446064D0846114600222A601A4652
S31502004B2001F0B0FD431C02D12B6803B1236038BDEE
S31502004B308CC0002238B50446064D084611460022AE
S31502004B402A601A46FBF70CFC431C02D12B6803B100
S31502004B50236038BD8CC00022014B1868704700BF25
S31502004B60B4000022704770477047C9B20346024438
S31502004B7010B59342184601D1002003E004780133B0
S31502004B808C42F6D110BD0A44431E914200D17047B1
S31502004B9010B511F8014B914203F8014FF9D110BD3E
S31502004BA0034613F8012B002AFBD1181A0138704765
S31502004BB02DE9F74F036907460C69A342C0F28380C9
S31502004BC0013C00F1140501F11408A30055F8242054
S31502004BD008EB8409009305EB8403019358F824300B
S31502004BE001339A42B2FBF3F631D34FF0000AC446C0
S31502004BF0AE46D3465CF8043B98B2E1454FEA13430E
S31502004C0006FB00A04FEA104280B206FB0323DEF841
S31502004C10002092B24FEA134AA2EB00029BB2DEF8E0
S31502004C2000005A44C3EB224392B203EB104342EA1A
S31502004C3003424FEA234B4EF8042BDBD2009BEB5880
S31502004C402BB9019B043B9D421A4630D33C61384640
S31502004C5001F002F9002826DB2946002058F8042B29
S31502004C60D1F800C01FFA82FEC1451FFA8CF34FEA43
S31502004C701242A3EB0E030344C2EB23429BB202EBA6
S31502004C801C4243EA02434FEA224041F8043BE5D282
S31502004C9055F8242005EB840322B9043B9D421A46AB
S31502004CA00BD33C610136304603B0BDE8F08F126883
S31502004CB0043B002ACAD1013CC5E71268043B002A1C
S31502004CC0EFD1013CEAE70020EEE700000000000019
S31502004CD02DE9F04FC76981462DED028B91B055EC57
S31502004CE0104B1C9E069109920C938DED020B7FB917
S31502004CF0102000F085FD0246C9F81C0020B99E4B23
S31502004D00EF219E48FEF722FAC0E901770760C760E5
S31502004D10D9F81C30196859B15A680123484693409C
S31502004D204A608B6000F062FED9F81C3000221A60DD
S31502004D302B1EB7BF23F00043002301220393ACBF0F
S31502004D40336032608E4B039EB34310D142F20F732F
S31502004D500C9A1360C6F31303234300F0D5841D9BFC
S31502004D60884F002B00F0D784FB1C00F0D2BC9DEDCF
S31502004D70028BB5EE408BF1EE10FA0AD101230C9AA2
S31502004D8013601D9B13B1804B1D9A13607F4F00F079
S31502004D90C2BC0EAAB0EE480B0FA9484601F010F9A4
S31502004DA0C6F30A530E9A0190002B45D018EE901ABC
S31502004DB0B0EE487BA3F2FF330025C1F3130141F0A5
S31502004DC07F5141F44011B7EE086B07EE901A9FED42
S31502004DD0645B37EE467B9FED646BA7EE056B07EED1
S31502004DE0903AB8EEE74B9FED625BB0EE467BA4EEDF
S31502004DF0057BB5EEC07BFDEEC76BF1EE10FA16EE43
S31502004E00908A08D5B8EEE66BB4EE476BF1EE10FA6F
S31502004E1018BF08F1FF38B8F1160F2DD85C4901EB1F
S31502004E20C80191ED007BB4EEC78BF1EE10FA01D505
S31502004E3008F1FF38002120E00F9B0125134403F2FD
S31502004E4032412029C9BFC1F14001C1F120018E4082
S31502004E5003F21241D8BF04FA01F103F1FF33C4BFD2
S31502004E6024FA01F1314307EE901AB8EE677B17EE8A
S31502004E70901AA1F1F871A6E70121D21A0B91531EDD
S31502004E80059345BFC2F10103002200230592B8F142
S31502004E90000F17DB059ACDF82880424405920022BE
S31502004EA00792069A092A42D8052AC5BF043A00245F
S31502004EB001240692069A023A032A43D8DFE802F050
S31502004EC03335160AC8F10002A3EB08030792002243
S31502004ED00A92E6E701220892099A08EB020B0BF105
S31502004EE0010A5246012AB8BF012206E001220892AF
S31502004EF0099A002A29DD93469246D9F81C700021A8
S31502004F00042000F11406964226D979604846049395
S31502004F1000F02CFD049B074600283DD11D4B02469E
S31502004F2040F2AF11EDE60022E1E70022D3E70124C9
S31502004F300022089406924FF0FF3B00211222DA4625
S31502004F400991DAE701220892F5E74FF0010BDA46FA
S31502004F505A46CDF824B0D0E701314000D1E700BF70
S31502004F6061436F63A787D23FB3C8608B288AC63F67
S31502004F70FB799F501344D33F91460102A846010292
S31502004F800000F07F8D460102614601026046010281
S31502004F90C047010201470102D9F81C20BAF10E0FDF
S31502004FA010606ED8002C6CD0B8F1000F40F3B480BC
S31502004FB008F00F01C74A18F4807F02EBC1024FEADC
S31502004FC0281192ED007B00F09B80C34A01F00F018D
S31502004FD092ED086B032288EE066B8DED026BBE48DE
S31502004FE0002940F08F809DED026B86EE077B8DEDEA
S31502004FF0027B0B999DED027B002900F0B380B7EE90
S31502005000006BB4EEC67BF1EE10FA40F1AB80BAF15A
S31502005010000F00F0A780BBF1000F30DDB2EE046B8B
S3150200502008F1FF3101325C46049127EE067B8DEDD5
S31502005030027B07EE902AB1EE0C5B9DED026BB8EE99
S31502005040E77BA7EE065B15EE902A51EC150BA2F153
S315020050505071002C40F08A80B1EE047B36EE476B2D
S3150200506041EC170BB4EEC76BF1EE10FA00F35D825A
S31502005070B1EE477BB4EEC76BF1EE10FA23D48DED99
S31502005080028B0F990029C0F22981B8F10E0F00F3A5
S315020050902581904B03EBC80393ED006B099B002B14
S315020050A080F2C880BAF1000F00F3C4800BD1B1EED2
S315020050B0047B26EE076B9DED027BB4EEC76BF1EE29
S315020050C010FAC0F22F8200242546099B3E46DB4396
S315020050D004934FF000082146484600F087FC002D55
S315020050E000F0A280B8F1000F05D0A84503D04146D2
S315020050F0484600F07BFC2946484600F077FC93E0E0
S3150200510002226CE7CC0704D5013290ED006B27EE44
S31502005110067B4910083063E722D0C8F100016D4AC8
S31502005120002401F00F00091102EBC0026A4892ED59
S31502005130007B022228EE077B8DED027B29B9002C2B
S315020051403FF457AF8DED027B53E7CE0705D501320B
S31502005150012490ED006B27EE067B49100830EDE73F
S31502005160022246E75446CDF8108062E7594A02EB1E
S31502005170C4023C4412ED024B089A41EC170B4AB3A7
S31502005180B6EE003B3E46B7EE002B83EE045BB2EE74
S31502005190043B35EE477BFDEEC64BB8EEE45B14EE00
S315020051A0902A303236EE456B06F8012BB4EEC76B09
S315020051B0F1EE10FA38D432EE465BB4EEC75BF1EE8E
S315020051C010FA6ED4A6423FF45AAF27EE037B26EEC0
S315020051D0036BE0E727EE047B21463E46B2EE043B34
S315020051E0FDEEC64B14EE902AB8EEE45B303236EE94
S315020051F0456B06F8012BA64219D1B6EE005B37EED7
S31502005200054BB4EEC46BF1EE10FA4ADC35EE475BA1
S31502005210B4EEC56BF1EE10FA7FF531AF0E460139E9
S3150200522016F8013C302BF9D0DDF8108027E026EE87
S31502005230036BD5E79DED027BB2EE044B3E4687EE4D
S31502005240065BBDEEC55B15EE103AB8EEC53B3033D4
S31502005250A3EE467B06F8013BF31B9A4532D137EEA5
S31502005260077BB4EEC67BF1EE10FA18DCB4EE467B91
S31502005270F1EE10FA03D115EE103ADB070FD40199BD
S31502005280484600F0B3FB00230C9A337008F1010381
S3150200529013601D9B002B00F03E821E603BE2CDF8A0
S315020052A0108033461E4613F8012D392A06D19F4235
S315020052B0F8D1049A0132049230223A701A780132F5
S315020052C01A70B1E727EE047BB5EE407BF1EE10FAD9
S315020052D0B5D1D4E7C047010298470102089A002ACD
S315020052E000F0E580069A012A00F3C680002D00F040
S315020052F0BF8001F23341079C1E460B444846049385
S31502005300059B0B440121059300F026FC049B0546F0
S3150200531056B1059A002A07DDB2420599A8BF324660
S315020053209B1AB61A8A1A0592079A12B3089A002A83
S3150200533000F0C1809CB12946224648460D9300F0F2
S31502005340C5FC019A01460546484600F01BFC019938
S315020053500490484600F04AFB049A0D9B0192079A74
S31502005360121B06D004930199484600F0AFFC049B39
S31502005370019001214846049300F0EEFB0A9A044686
S31502005380049B002A00F0CD810146484600F09EFCAF
S31502005390069B0446012B049B00F39480029A002A82
S315020053A040F08C80039AC2F31302002A40F08880F0
S315020053B0039A22F00042120D120522B1059A013318
S315020053C001320592012207920A9A002A00F0AF8161
S315020053D02269049304EB8202106900F071FB049BBC
S315020053E0C0F12000059A104410F01F0075D0C0F1DC
S315020053F02002042A69DDC0F11C00059A0344024416
S3150200540006440592002B05DD1A460199484600F02E
S31502005410B7FC0190059B002B05DD21461A4648463E
S3150200542000F0AEFC04460B9B002B58D02146019897
S3150200543000F012FD002852DA08F1FF330A22019920
S3150200544048460493002300F0F3FA089B0190002BD0
S3150200545000F06F81294600230A22484600F0E8FA46
S31502005460BBF1000F054666DC069B022B40DC62E0C0
S315020054700E99C1F136013EE70AF1FF34079AA242BC
S3150200548007DBBAF1000FA2EB04040CDB1E46514601
S3150200549033E7079A1E460A99A21A07940024114472
S315020054A00A91514629E7A3EB0A06002125E7079C44
S315020054B01E46089D2CE7079A049354E7002282E7CA
S315020054C0029A80E70022079282E79BD01C32059956
S315020054D0114413441644059194E70246F6E7BAF1DD
S315020054E0000FD346CDF8108021DC069B022B1EDD71
S315020054F0BBF1000F7FF4E9AD21465B460522484623
